S0170000416C706861436F6E74726F6C6C65722E7372656303
S11300000C9445000C9464000C9462000C946200FF
S11300100C9462000C9462000C9462000C946200D4
S11300200C9462000C9462000C9462000C946200C4
S11300300C9462000C9462000C9462000C946200B4
S11300400C9491000C9462000C9462000C94620075
S11300500C94B0000C9462000C9462000C94620046
S11300600C9462000C9462000C9462000C94620084
S11300700C9462000C9462000C946200CC01D701D1
S1130080E2019A02D80216037B0311241FBECFEFAC
S1130090D0E1DEBFCDBF15E0A0E0B1E0E0E0FBE0E1
S11300A002C005900D92A63CB107D9F726E0A6EC54
S11300B0B5E001C01D92A930B207E1F70E941D010D
S11300C00C947E050C9400001F920F920FB60F92B1
S11300D011248F939F931092CD051092CC0580919B
S11300E0CE059091CF0501969093CF058093CE05D0
S11300F080910201909103010196909303018093F2
S113010002018091000190910101019690930101F7
S1130110809300019F918F910F900FBE0F901F90BD
S113012018951F920F920FB60F9211248F939F93DD
S11301308091CC059091CD0501969093CD05809347
S1130140CC059F918F910F900FBE0F901F90189523
S1130150E0ECF0E080818823ECF78091C6000895FC
S11301601F920F920FB60F9211242F933F934F9328
S11301705F936F937F938F939F93AF93BF93EF930B
S1130180FF930E94A8008093080681E090E090937A
S1130190C9058093C805FF91EF91BF91AF919F91DD
S11301A08F917F916F915F914F913F912F910F901C
S11301B00FBE0F901F901895E0ECF0E0908195FF32
S11301C0FDCF8093C6000895289A0895289808952D
S11301D0299A0895299808952A9A08952A9808959D
S11301E02B9A08952B9808952C9A08952C98089585
S11301F0E89AE9E6F0E0808181608083089582E0F6
S113020084BD85B5826085BD83E687BDEEE6F0E0FA
S1130210808182608083089589E190E09093C50095
S11302208093C40088E98093C100E2ECF0E086E0AA
S113023080838081877F808308950E94F8000E94D4
S1130240FF000E940C0178948FEF84B98091CE0551
S11302509091CF05883C910539F41092CF05109206
S1130260CE0582E70E94DC00809102019091030197
S1130270883C910521F410920301109202018091AF
S1130280000190910101883C910521F41092010133
S1130290109200018091C8059091C9050197D9F485
S11302A0809108068332B9F0E091CA05F091CB053C
S11302B080910806EA52FA4F80838091CA05909192
S11302C0CB0501969093CB058093CA051092C9057E
S11302D01092C80554C08091C8059091C905019732
S11302E009F04DC080910806833209F048C080911E
S11302F0CA059091CB0501969093CB058093CA05CE
S1130300E091CA05F091CB05EA52FA4F108264ECF1
S113031075E086ED95E00E944A050E942C059093B5
S113032005018093040164EC75E080E090E00E9494
S11303304A050E942C059093D5058093D40564EC5E
S113034075E080E090E00E944A050E942C0590939D
S1130350D3058093D20564EC75E080E090E00E94C0
S11303604A050E942C059093D1058093D0051092E4
S1130370CB051092CA051092C9051092C805E091E8
S11303800401F09105013197E730F10508F05ECFE3
S1130390E25CFF4F0C9426050E94E6000E94EA00EE
S11303A00E94EE000E94F2000E94F6004FCF0E94CD
S11303B0E4000E94E8000E94EC000E94F0000E9409
S11303C0F40044CF6091CC057091CD05E091D40543
S11303D0F091D505EE0FFF1FEE0FFF1FE05DFB4F01
S11303E0C080D180E280F3806F5F7F4F072E000CC6
S11303F0880B990B0E9404044B015C016091060177
S113040070910701072E000C880B990B0E940404BD
S1130410A70196010E94950420E030E048E452E4EC
S11304200E9490039B01AC01C501B4010E94900499
S113043018161CF40E94E40002C00E94E6006091B9
S1130440CC057091CD05E091D205F091D305EE0F66
S1130450FF1FEE0FFF1FE05DFB4FC080D180E280E5
S1130460F3806F5F7F4F072E000C880B990B0E945F
S113047004044B015C016091060170910701072E91
S1130480000C880B990B0E940404A70196010E949A
S1130490950420E030E048E452E40E9490039B017C
S11304A0AC01C501B4010E94900418161CF40E940A
S11304B0E80002C00E94EA006091CC057091CD056D
S11304C0E091D005F091D105EE0FFF1FEE0FFF1F55
S11304D0E05DFB4FC080D180E280F3806F5F7F4F8F
S11304E0072E000C880B990B0E9404044B015C013D
S11304F06091060170910701072E000C880B990B7F
S11305000E940404A70196010E94950420E030E0B3
S113051048E452E40E9490039B01AC01C501B4017C
S11305200E94900418161CF40E94EC008FCE0E94C6
S1130530EE008CCE6091CC057091CD05E091D40590
S1130540F091D505EE0FFF1FEE0FFF1FE85FFE4F82
S1130550C080D180E280F3806F5F7F4F072E000C54
S1130560880B990B0E9404044B015C016091060105
S113057070910701072E000C880B990B0E9404044C
S1130580A70196010E94950420E030E048E452E47B
S11305900E9490039B01AC01C501B4010E94900428
S11305A018161CF40E94E40051CE0E94E6004ECEC0
S11305B06091CC057091CD05E091D405F091D505FD
S11305C0EE0FFF1FEE0FFF1FE456FD4FC080D180DA
S11305D0E280F3806F5F7F4F072E000C880B990B2E
S11305E00E9404044B015C016091060170910701B3
S11305F0072E000C880B990B0E940404A701960196
S11306000E94950420E030E048E452E40E94900304
S11306109B01AC01C501B4010E94900418161CF49E
S11306200E94E40013CE0E94E60010CE2091CE0575
S11306303091CF058091D4059091D5052F5F3F4F20
S1130640880F991F821793071CF40E94E60002C0CA
S11306500E94E4002091CE053091CF058091D2050F
S11306609091D3052F5F3F4F880F991F82179307EF
S11306701CF40E94EA0002C00E94E8002091CE050A
S11306803091CF058091D0059091D1052F5F3F4FD8
S1130690880F991F821793071CF40E94EE0002C072
S11306A00E94EC0020910201309103018091D00559
S11306B09091D1052F5F3F4F880F991F82179307A1
S11306C01CF40E94F20002C00E94F000209100017C
S11306D0309101018091D0059091D1052F5F3F4F5A
S11306E0880F991F821793071CF40E94F600AECD61
S11306F00E94F400ABCD2091CE053091CF058091BE
S1130700D4059091D5052F5F3F4F880F991F82170D
S113071093071CF40E94E40099CD0E94E60096CD54
S11307200E94A4030C9456040E944F0458F00E94A3
S1130730480440F029F45F3F29F00C943F04511120
S11307400C948A040C9445040E94670468F399236A
S1130750B1F3552391F3951B550BBB27AA276217B9
S11307607307840738F09F5F5F4F220F331F441FC6
S1130770AA1FA9F335D00E2E3AF0E0E832D09150FA
S11307805040E695001CCAF72BD0FE2F29D0660FE7
S1130790771F881FBB1F261737074807AB07B0E82A
S11307A009F0BB0B802DBF01FF2793585F4F3AF030
S11307B09E3F510578F00C943F040C948A045F3FEB
S11307C0E4F3983ED4F3869577956795B795F795B6
S11307D09F5FC9F7880F911D9695879597F908959E
S11307E0E1E0660F771F881FBB1F6217730784073A
S11307F0BA0720F0621B730B840BBA0BEE1F88F749
S1130800E0950895E89409C097FB3EF4909580958F
S1130810709561957F4F8F4F9F4F9923A9F0F92FC2
S113082096E9BB279395F695879577956795B79540
S1130830F111F8CFFAF4BB0F11F460FF1BC06F5F26
S11308407F4F8F4F9F4F16C0882311F096E911C038
S1130850772321F09EE8872F762F05C0662371F059
S113086096E8862F70E060E02AF09A95660F771F6D
S1130870881FDAF7880F9695879597F9089597F961
S11308809F6780E870E060E008959FEF80EC089532
S113089000240A941616170618060906089500245B
S11308A00A9412161306140605060895092E0394D5
S11308B0000C11F4882352F0BB0F40F4BF2B11F449
S11308C060FF04C06F5F7F4F8F4F9F4F089557FDA8
S11308D09058440F551F59F05F3F71F04795880FAA
S11308E097FB991F61F09F3F79F087950895121641
S11308F013061406551FF2CF4695F1DF08C01616ED
S113090017061806991FF1CF86957105610508949D
S11309100895E894BB2766277727CB0197F90895B4
S11309200E94020508F48FEF08950E94A8040C9415
S113093056040E94480438F00E944F0420F0952386
S113094011F00C943F040C94450411240C948A0473
S11309500E94670470F3959FC1F3950F50E0551FF3
S1130960629FF001729FBB27F00DB11D639FAA2700
S1130970F00DB11DAA1F649F6627B00DA11D661F4F
S1130980829F2227B00DA11D621F739FB00DA11D70
S1130990621F839FA00D611D221F749F3327A00D2A
S11309A0611D231F849F600D211D822F762F6A2FC6
S11309B011249F5750409AF0F1F088234AF0EE0F2B
S11309C0FF1FBB1F661F771F881F91505040A9F758
S11309D09E3F510580F00C943F040C948A045F3FC1
S11309E0E4F3983ED4F3869577956795B795F79594
S11309F0E7959F5FC1F7FE2B880F911D969587950C
S1130A0097F90895990F0008550FAA0BE0E8FEEF37
S1130A1016161706E807F907C0F012161306E407BE
S1130A20F50798F0621B730B840B950B39F40A26B7
S1130A3061F0232B242B252B21F408950A2609F495
S1130A40A140A6958FEF811D811D0895EE0FFF1F14
S1130A500590F491E02D0994FC0188279927E894E6
S1130A6021912032E9F3293010F02E30C8F32B32D3
S1130A7041F02D3239F4689404C00E947605820F47
S1130A80911D219120532A30C0F31EF49095819535
S1130A909F4F089546EC55E00E944F050895FA01D2
S1130AA0A191B081009719F41097E1F0CD01DC0118
S1130AB0CD010D90002011F4C00113C0FB01219160
S1130AC0222319F02015D9F7F3CFFB01219120152A
S1130AD019F41E92119606C02223C1F70D9000202E
S1130AE0A1F7D001FA01A193B08308957AE0979F0A
S1130AF0902D879F802D910D11240895F894FFCF98
S1130B0085004300010010270000803F5C8F623F96
S1130B1048E15A3FE17A543FD7A3503FCDCC4C3FF4
S1130B20C3F5483FB81E453F5C8F423F0000403F3D
S1130B30A4703D3F48E13A3F9A99393F3D0A373F17
S1130B40E17A343F3333333FD7A3303F295C2F3F1F
S1130B50CDCC2C3F1F852B3F713D2A3F14AE273F40
S1130B606666263FB81E253F0AD7233FAE47213F7E
S1130B700000203F52B81E3FA4701D3FF6281C3FC2
S1130B8048E11A3F9A99193FEC51183F8FC2153F1B
S1130B90E17A143F3333133F85EB113FD7A3103F62
S1130BA0295C0F3F7B140E3FCDCC0C3F1F850B3FC0
S1130BB0713D0A3FC3F5083F14AE073F6666063F22
S1130BC0B81E053F0AD7033F5C8F023FAE47013F83
S1130BD00000003FA470FD3E48E1FA3EEC51F83EAF
S1130BE08FC2F53E3333F33ED7A3F03E7B14EE3E83
S1130BF01F85EB3EC3F5E83E6666E63E0AD7E33E54
S1130C00AE47E13E52B8DE3EF628DC3E9A99D93E24
S1130C103D0AD73EE17AD43E295CCF3ECDCCCC3ED2
S1130C20713DCA3E14AEC73EB81EC53E5C8FC23E7F
S1130C300000C03EA470BD3EEC51B83E8FC2B53E2C
S1130C403333B33ED7A3B03E1F85AB3EC3F5A83EB6
S1130C506666A63EAE47A13E52B89E3E9A99993E1C
S1130C603D0A973E85EB913ECDCC8C3E713D8A3E4C
S1130C70B81E853E0000803E8FC2753E1F856B3EC8
S1130C80F6285C3ECDCC4C3EA4703D3E7B142E3EFB
S1130C90E17A143E1F85EB3D000000000000803F18
S1130CA09A99793F8FC2753F3333733F295C6F3F05
S1130CB0CDCC6C3F1F856B3FC3F5683F6666663FCE
S1130CC00AD7633F5C8F623F0000603F52B85E3FCB
S1130CD0F6285C3F48E15A3FEC51583F3D0A573FE4
S1130CE08FC2553F3333533F85EB513FD7A3503F1A
S1130CF07B144E3FCDCC4C3F1F854B3F713D4A3F4B
S1130D0014AE473F6666463FB81E453F0AD7433F89
S1130D10AE47413F0000403F52B83E3FA4703D3FC4
S1130D20F6283C3F9A99393FEC51383F3D0A373F0A
S1130D308FC2353FE17A343F85EB313FD7A3303F53
S1130D40295C2F3F7B142E3FCDCC2C3F1F852B3F9E
S1130D50C3F5283F14AE273F6666263FB81E253FDD
S1130D600AD7233FAE47213F0000203F52B81E3F21
S1130D70A4701D3FF6281C3F9A99193FEC51183F67
S1130D803D0A173F8FC2153F3333133F85EB113FA5
S1130D90D7A3103F295C0F3FCDCC0C3F1F850B3FE1
S1130DA0713D0A3F14AE073F6666063FB81E053F15
S1130DB05C8F023FAE47013F0000003F48E1FA3E2E
S1130DC0EC51F83E3333F33ED7A3F03E1F85EB3EA0
S1130DD0C3F5E83E0AD7E33E52B8DE3EF628DC3ED1
S1130DE03D0AD73E85EBD13E295CCF3E713DCA3EDC
S1130DF0B81EC53E0000C03E48E1BA3E8FC2B53EB3
S1130E007B14AE3EC3F5A83EAE47A13EF6289C3EF9
S1130E10E17A943ECDCC8C3E5C8F823ED7A3703E6B
S1130E20F6285C3EA4703D3EE17A143E00000000CA
S1130E300000803FA4707D3F48E17A3FEC51783F49
S1130E408FC2753F3333733FD7A3703F7B146E3F1C
S1130E501F856B3FC3F5683F6666663F0AD7633FED
S1130E60AE47613F52B85E3FF6285C3F9A99593FBE
S1130E703D0A573FE17A543F85EB513F295C4F3F90
S1130E80CDCC4C3F713D4A3F14AE473FB81E453F61
S1130E905C8F423F0000403FA4703D3F48E13A3F31
S1130EA0EC51383F8FC2353F3333333FD7A3303F04
S1130EB07B142E3F1F852B3FC3F5283F6666263FD4
S1130EC00AD7233FAE47213F52B81E3FF6281C3FA6
S1130ED09A99193F3D0A173FE17A143F85EB113F78
S1130EE0295C0F3FCDCC0C3F713D0A3F14AE073F48
S1130EF0B81E053F5C8F023F0000003F48E1FA3E08
S1130F008FC2F53ED7A3F03E1F85EB3E6666E63EF4
S1130F10AE47E13EF628DC3E3D0AD73E85EBD13EA6
S1130F20CDCCCC3E14AEC73E5C8FC23EA470BD3E59
S1130F30EC51B83E3333B33E7B14AE3EC3F5A83E0A
S1130F400AD7A33E52B89E3E9A99993EE17A943EBE
S1130F50295C8F3E713D8A3EB81E853E0000803E6E
S1130F608FC2753E1F856B3EAE47613E3D0A573EBC
S1130F70CDCC4C3E5C8F423EEC51383E7B142E3E31
S1130F800AD7233E9A99193E295C0F3EB81E053EA6
S1130F908FC2F53DAE47E13DCDCCCC3DEC51B83DE3
S1130FA00AD7A33D295C8F3D8FC2753DCDCC4C3D06
S1130FB00AD7233D8FC2F53C0AD7A33C0AD7233C6A
S1090FC0000000002D00FA
S9030000FC
