S0170000416C706861436F6E74726F6C6C65722E7372656303
S11300000C9445000C9424050C9462000C9462003A
S11300100C9462000C9462000C9462000C946200D4
S11300200C9462000C9462000C9462000C946200C4
S11300300C9462000C9462000C9462000C946200B4
S11300400C948C050C9462000C9462000C94620075
S11300500C9470050C9462000C9462000C94620081
S11300600C9462000C9462000C9462000C94620084
S11300700C9462000C9462000C946200DF03D903B8
S1130080CD020F025101CD008B0311241FBECFEF0F
S1130090D0E1DEBFCDBF15E0A0E0B1E0E2E1FDE0DC
S11300A002C005900D92A43CB107D9F728E0A4EC56
S11300B0B5E001C01D92A137B207E1F70E946400C8
S11300C00C9487060C940000E89A80916900816082
S11300D08093690082E084BD85B5856085BD87E62F
S11300E087BD80916E00826080936E008091800055
S11300F08093800080918100826080938100809150
S11301006F00816080936F0089E190E09093C50057
S11301108093C40088E98093C10086E08093C20084
S11301208091C200877F8093C20078948FEF84B956
S113013032E7732E44E6842E912C5CE3C52E58E0FE
S1130140D52EC1E0D0E062E7E62E67E0F62E08EA9D
S113015016E08091DA059091DB05883C910509F45D
S11301606FC08091C8059091C905019709F47DC0BD
S1130170A090C805B090C90521E0A216B10409F405
S113018024C3E0910401F09105013197E730F105B2
S113019000F7E25CFF4F0C942F068091DE059091EE
S11301A0DF052091DA053091DB05880F991F2817A8
S11301B039070CF48CC328988091DC059091DD05F7
S11301C02091DA053091DB05880F991F281739072C
S11301D00CF47BC329988091020190910301209132
S11301E0DA053091DB05880F991F281739070CF4BD
S11301F06AC32A9880910201909103012091D80545
S11302003091D905880F991F281739070CF459C361
S11302102B9880910201909103012091D605309191
S1130220D705880F991F281739070CF4F6C02C98A6
S11302308091DA059091DB05883C910509F091CF16
S11302401092DB051092DA051092D5051092D405B0
S11302508091C00085FFFCCF7092C6008091C805D4
S11302609091C905019709F083CF8091700883327A
S113027009F47ECFE091CA05F091CB058091700816
S1130280E25CF74F80838091CA059091CB0501967B
S11302909093CB058093CA051092C9051092C805A6
S11302A070CF6091840070918500A090DE05B090BD
S11302B0DF0580E090E00E94C905F501EE0FFF1F05
S11302C0EE0FFF1FEA5FFE4F20813181428153818F
S11302D00E94060618160CF0F2C2289A6091840057
S11302E070918500A090DC05B090DD0580E090E081
S11302F00E94C905F501EE0FFF1FEE0FFF1FEA5F15
S1130300FE4F20813181428153810E9406061816D6
S11303100CF0D3C2299A6091840070918500A0905A
S11303200201B090030180E090E00E94C905F5014C
S1130330EE0FFF1FEE0FFF1FEA5FFE4F208131819A
S1130340428153810E94060618160CF0B4C22A9A00
S11303508091840090918500855F954E81329E4402
S113036008F09EC28091840090918500855F954E2F
S11303709093CF058093CE05809184009091850061
S11303808B5E9B4C81329E4408F4B2C280918400FF
S1130390909185008B509A419093CD058093CC0524
S11303A06091CE057091CF05A0900201B090030139
S11303B0072E000C880B990B0E94CB05F501EE0F5C
S11303C0FF1FEE0FFF1FEA5FFE4F20813181428144
S11303D053810E94060618160CF04DC22B9A6091A8
S11303E0CC057091CD05A0900201B0900301072EB9
S11303F0000C880B990B0E94CB05F501EE0FFF1F33
S1130400EE0FFF1FEA5FFE4F20813181428153814D
S11304100E94060618160CF00ACF2C9A9ACE609108
S1130420840070918500A090DE05B090DF0580E027
S113043090E00E94C905F501EE0FFF1FEE0FFF1FAC
S1130440E656FD4F20813181428153810E94060688
S113045018160CF00EC2289A6091840070918500E1
S1130460A090DC05B090DD0580E090E00E94C90515
S1130470F501EE0FFF1FEE0FFF1FE656FD4F208123
S11304803181428153810E94060618160CF0EFC197
S1130490299A6091840070918500A0900201B09027
S11304A0030180E090E00E94C905F501EE0FFF1FF3
S11304B0EE0FFF1FE656FD4F2081318142815381AB
S11304C00E94060618160CF011C22A9A8091840024
S11304D090918500855F954E81329E4408F0FBC162
S11304E08091840090918500855F954E9093CF050F
S11304F08093CE0580918400909185008B5E9B4C07
S113050081329E4408F40AC280918400909185004F
S11305108B509A419093CD058093CC056091CE0584
S11305207091CF05A0900201B0900301072E000C3A
S1130530880B990B0E94CB05F501EE0FFF1FEE0F00
S1130540FF1FE656FD4F20813181428153810E9475
S1130550060618160CF0BDC12B9A6091CC0570915B
S1130560CD05A0900201B0900301072E000C880B6A
S1130570990B0E94CB05F501EE0FFF1FEE0FFF1F35
S1130580E656FD4F20813181428153810E94060647
S113059018160CF04CCE2C9ADCCD6091840070912E
S11305A08500A090DE05B090DF0580E090E00E9419
S11305B0C905F501EE0FFF1FEE0FFF1FE25DFB4FB4
S11305C020813181428153810E94060618160CF065
S11305D065C1289A6091840070918500A090DC0523
S11305E0B090DD0580E090E00E94C905F501EE0FB2
S11305F0FF1FEE0FFF1FE25DFB4F2081318142811F
S113060053810E94060618160CF046C1299A60917F
S1130610840070918500A0900201B090030180E0F5
S113062090E00E94C905F501EE0FFF1FEE0FFF1FBA
S1130630E25DFB4F20813181428153810E94060695
S113064018160CF027C12A9A809184009091850095
S1130650855F954E81329E4408F011C180918400DB
S113066090918500855F954E9093CF058093CE053C
S113067080918400909185008B5E9B4C81329E44D6
S113068008F441C180918400909185008B509A4177
S11306909093CD058093CC056091CE057091CF05E4
S11306A0A0900201B0900301072E000C880B990B57
S11306B00E94CB05F501EE0FFF1FEE0FFF1FE25D59
S11306C0FB4F20813181428153810E940606181616
S11306D00CF0D3C02B9A6091CC057091CD05A090FD
S11306E00201B0900301072E000C880B990B0E94A5
S11306F0CB05F501EE0FFF1FEE0FFF1FE25DFB4F71
S113070020813181428153810E94060618160CF023
S11307108ECD2C9A1ECD80910001909101010197FC
S113072009F40FC1E091D405F091D505EE0FFF1F38
S1130730EC58F84F80819181019709F400C1289801
S1130740E091D405F091D505EE0FFF1FE655F94F62
S113075080819181019709F4F0C02998E091D40532
S1130760F091D505EE0FFF1FE052FA4F8081918181
S1130770019709F4E0C02A98E091D205F091D305DD
S1130780EE0FFF1FE052FA4F80819181019709F427
S1130790D0C02B98E091D005F091D105EE0FFF1F4A
S11307A0E052FA4F80819181019709F436CE2C985A
S11307B03FCD289A299A2A9A2B9A2C9ACACC2898FF
S11307C029982A982B982C98C4CC8091700883324D
S11307D009F0D7CC8091CA059091CB0501969093EE
S11307E0CB058093CA05E091CA05F091CB05E25C84
S11307F0F74F108262EC75E08EE398E00E94530696
S11308000E943506909305018093040162EC75E023
S113081080E090E00E9453060E9435069093DF0525
S11308208093DE0562EC75E080E090E00E94530660
S11308300E9435069093DD058093DC0562EC75E03B
S113084080E090E00E9453060E94350690930301D5
S1130850809302011092CB051092CA051092C9052B
S11308601092C805B0920101A09200018ACC299887
S113087010CE2898F1CD2B98B2CD2B982CCF809107
S1130880840090918500855194439093CF05809383
S1130890CE05EECE2A98D8CE2998B9CE28989ACEED
S11308A08091840090918500855194439093CF0565
S11308B08093CE0561CD2A984BCD29982CCD2898CC
S11308C00DCD2B9AA6CC2A9A95CC299A84CC289A19
S11308D073CC2B9842CE80918400909185008551F1
S11308E094439093CF058093CE0504CE2A98EECD01
S11308F080918400909185008B5E9B4C9093CD05F4
S11309008093CC054DCD80918400909185008B5EC1
S11309109B4C9093CD058093CC05BECE80918400F2
S1130920909185008B5E9B4C9093CD058093CC0574
S1130930F5CD2B9A2FCF2A9A1FCF299A0FCF289A19
S1130940FFCEA091DE05B091DF05B4016A1B7B0BDD
S1130950CD0184569109E4E7F7E020E030E00DC0D2
S1130960D183C08397FD0FC0AC01461B570B329651
S11309709C01CE16DF0679F0CA0137FFF1CF118250
S1130980108297FFF1CFAD01480F591F32969C0199
S1130990CE16DF0689F7A091DC05B091DD05B40120
S11309A06A1B7B0BCD0184569109EAEAF6E020E04C
S11309B030E00DC0D183C08397FD0FC0AC01461B4E
S11309C0570B32969C01EE16FF0679F0CA0137FFE9
S11309D0F1CF1182108297FFF1CFAD01480F591F5B
S11309E032969C01EE16FF0689F7A0910201B091A0
S11309F00301B4016A1B7B0BCD0184569109E0EE1F
S1130A00F5E020E030E00DC0D183C08397FD0FC036
S1130A10AC01461B570B32969C010E171F0779F049
S1130A20CA0137FFF1CF1182108297FFF1CFAD01D8
S1130A30480F591F32969C010E171F0789F7109211
S1130A400101109200016ECE1F920F920FB60F9209
S1130A5011242F933F938F939F93109285001092AC
S1130A60840016BC2091C6053091C70581E090E052
S1130A70821B930B9093C7058093C6058091C6058E
S1130A809091C705019749F188E687BD8091DA0501
S1130A909091DB0501969093DB058093DA058091B4
S1130AA0DA059091DB0580FD0FC08091DA05909105
S1130AB0DB05892B49F08091D4059091D5050196E9
S1130AC09093D5058093D4059F918F913F912F9159
S1130AD00F900FBE0F901F90189584E387BDD6CF5B
S1130AE01F920F920FB60F9211248F939F938091B0
S1130AF0C00087FFFCCF8091C6008093700881E01E
S1130B0090E09093C9058093C8059F918F910F90B1
S1130B100FBE0F901F9018951F920F920FB60F9251
S1130B2011248F939F938091C6059091C705892BBB
S1130B30C9F08091DA059091DB059093D7058093F5
S1130B40D6058091D4059091D5059093D1058093D5
S1130B50D0058FEF87BD9F918F910F900FBE0F909F
S1130B601F9018958091DA059091DB059093D90533
S1130B708093D8058091D4059091D5059093D305A1
S1130B808093D2059F918F910F900FBE0F901F906D
S1130B901895E89409C097FB3EF49095809570955C
S1130BA061957F4F8F4F9F4F9923A9F0F92F96E9B5
S1130BB0BB279395F695879577956795B795F1112A
S1130BC0F8CFFAF4BB0F11F460FF1BC06F5F7F4FC7
S1130BD08F4F9F4F16C0882311F096E911C07723D9
S1130BE021F09EE8872F762F05C0662371F096E8E2
S1130BF0862F70E060E02AF09A95660F771F881FB1
S1130C00DAF7880F9695879597F908950E940B0651
S1130C1008F48FEF0895990F0008550FAA0BE0E828
S1130C20FEEF16161706E807F907C0F012161306AA
S1130C30E407F50798F0621B730B840B950B39F4EA
S1130C400A2661F0232B242B252B21F408950A2650
S1130C5009F4A140A6958FEF811D811D0895EE0F23
S1130C60FF1F0590F491E02D0994FC018827992732
S1130C70E89421912032E9F3293010F02E30C8F3A2
S1130C802B3241F02D3239F4689404C00E947F065F
S1130C90820F911D219120532A30C0F31EF49095A8
S1130CA081959F4F089544EC55E00E94580608959D
S1130CB0FA01A191B081009719F41097E1F0CD01E8
S1130CC0DC01CD010D90002011F4C00113C0FB0123
S1130CD02191222319F02015D9F7F3CFFB0121919B
S1130CE0201519F41E92119606C02223C1F70D9007
S1130CF00020A1F7D001FA01A193B08308957AE00E
S1130D00979F902D879F802D910D11240895F8941D
S1050D10FFCF0F
S1130D1201004300070000409C4600488A460098B0
S1130D22854600B0814600B07E4600007A460050F7
S1130D32754600A0704600806D4600606A46004019
S1130D426746002064460090624600705F46005089
S1130D525C4600C05A4600A057460010564600F0B2
S1130D6252460060514600D04F4600B04C46002027
S1130D724B46009049460000484600E04446005075
S1130D82434600C041460030404600A03E460010A3
S1130D923D4600803B4600F0394600D036460040CE
S1130DA2354600B0334600203246009030460000FB
S1130DB22F4600702D4600E02B4600502A4600C004
S1130DC228460030274600A025460010244600800D
S1130DD2224600F0204600601F4600D01D46004017
S1130DE21C4600B01A46002019460090174600001F
S1130DF216460070144600E012460050114600C028
S1130E020F4600300E4600A00C4600100B46008030
S1130E12094600F007460060064600D0044600403A
S1130E22034600B001460020FD450000FA4500E0FB
S1130E32F64500C0F34500A0F0450080ED45006092
S1130E42EA450040E7450000E14500E0DD4500C019
S1130E52DA4500A0D7450060D1450040CE450020C8
S1130E62CB4500E0C44500C0C1450080BB450060DD
S1130E72B8450020B24500E0AB4500C0A84500805B
S1130E82A24500409C450000964500C08F45006085
S1130E92864500007A45004067450080544500407D
S1130EA2354500C00F450000000000409C46005834
S1130EB298460000964600709446001892460088B0
S1130EC2904600C08F4600308E4600A08C4600102B
S1130ED28B4600488A4600B8884600F08746006080
S1130EE2864600988546000884460040834600787A
S1130EF2824600E880460020804600B07E4600908C
S1130F027B4600007A460070784600E0764600C0D0
S1130F1273460030724600A0704600106F4600F01F
S1130F226B4600606A4600D068460040674600B0DF
S1130F326546009062460000614600705F4600E02C
S1130F425D4600505C460030594600A057460010EA
S1130F5256460080544600F0524600605146004016
S1130F624E4600B04C4600204B46009049460000D5
S1130F72484600E044460050434600C04146003023
S1130F82404600A03E4600803B4600F039460060E1
S1130F92384600D0364600B0334600203246009030
S1130FA2304600002F4600E02B4600502A4600C07F
S1130FB2284600A0254600102446008022460060F0
S1130FC21F4600D01D4600401C46002019460090D2
S1130FD217460070144600E0124600C00F46003067
S1130FE20E4600100B4600F007460060064600401D
S1130FF20346002000460020FD4500E0F64500A01F
S1131002F0450060EA450020E44500E0DD4500804B
S1131012D4450040CE4500E0C44500A0BE45004092
S1131022B54500E0AB4500609F4500E09245006095
S113103286450040674500403545000000000040F9
S11310429C4600B09A4600209946009097460000BC
S113105296460070944600E092460050914600C0C5
S11310628F4600308E4600A08C4600108B460080CE
S1131072894600F087460060864600D084460040D8
S1131082834600B081460020804600207D46000051
S11310927A4600E0764600C0734600A0704600809F
S11310A26D4600606A4600406746002064460000C0
S11310B2614600E05D4600C05A4600A057460080E3
S11310C254460060514600404E4600204B46000004
S11310D2484600E0444600C0414600A03E46008027
S11310E23B46006038460040354600203246000048
S11310F22F4600E02B4600C0284600A0254600806B
S1131102224600601F4600401C460020194600008B
S1131112164600E0124600C00F4600A00C460080AE
S113112209460060064600400346002000460000CF
S1131132FA4500C0F3450080ED450040E745000054
S1131142E14500C0DA450080D4450040CE450000A8
S1131152C84500C0C1450080BB450040B5450000FC
S1131162AF4500C0A8450080A24500409C45000050
S1131172964500C08F4500808945004083450000A4
S11311827A4500806D4500006145008054450000A9
S1131192484500803B4500002F4500802245000061
S11311A21645008009450000FA440000E1440000AD
S11311B2C8440000AF440000964400007A44000092
S11311C24844000016440000C8430000484300009D
S10711D200002D00E8
S9030000FC
