S0170000416C706861436F6E74726F6C6C65722E7372656303
S11300000C9445000C940D020C9462000C94620054
S11300100C9462000C9462000C9462000C946200D4
S11300200C9462000C9462000C9462000C946200C4
S11300300C9462000C9462000C9462000C946200B4
S11300400C94A9020C9462000C9462000C9462005B
S11300500C945A020C9462000C9462000C9462009A
S11300600C9462000C9462000C9462000C94620084
S11300700C9462000C9462000C94620092009D0047
S1130080A800F40040018C01F60111241FBECFEF3B
S1130090D0E1DEBFCDBF15E0A0E0B1E0E6E0FBE0DB
S11300A002C005900D92AA3CB107D9F725E0AAEC4D
S11300B0B5E001C01D92AE3CB207E1F70E946400B6
S11300C00C9481050C9400008F929F92AF92BF9282
S11300D0CF92DF92EF92FF92CF93DF93CDB7DEB74B
S11300E078940E9485030E949F030E94C30384E2C4
S11300F090E02FEFFC0120838091BE059091BF0515
S1130100092E000CAA0BBB0B41E050E026E030E0C6
S1130110841B950B2817390778F3825C9F4FFC01E9
S11301200C947B050E94EC020E940E030E94300393
S11301300E9452030E9474036FC10E94DB020E945A
S1130140FD020E941F030E9441030E94630364C1D5
S11301508091CC059091CD050196092E000CAA0B37
S1130160BB0BBC01CD010E9459044B015C01809181
S1130170C0059091C105880F991F880F991F805061
S11301809F4FFC01C080D180E280F3808091BC0548
S11301909091BD05092E000CAA0BBB0BBC01CD012F
S11301A00E945904DC01CB019C01AD01C701B601D9
S11301B00E94EA04DC01CB0120E030E048E452E490
S11301C0BC01CD010E94E503DC01CB019C01AD0122
S11301D0C501B4010E94E50418161CF40E94DB0258
S11301E01BC10E94EC0218C18091CC059091CD05F1
S11301F00196092E000CAA0BBB0BBC01CD010E9479
S113020059044B015C018091C0059091C105880F90
S1130210991F880F991F885D9B4FFC01C080D18076
S1130220E280F3808091BC059091BD05092E000CFD
S1130230AA0BBB0BBC01CD010E945904DC01CB010C
S11302409C01AD01C701B6010E94EA04DC01CB01A7
S113025020E030E048E452E4BC01CD010E94E50313
S1130260DC01CB019C01AD01C501B4010E94E50490
S113027018161CF40E94DB02CFC00E94EC02CCC012
S11302808091CC059091CD050196092E000CAA0B06
S1130290BB0BBC01CD010E9459044B015C01809150
S11302A0C0059091C105880F991F880F991F8C561E
S11302B09D4FFC01C080D180E280F3808091BC0519
S11302C09091BD05092E000CAA0BBB0BBC01CD01FE
S11302D00E945904DC01CB019C01AD01C701B601A8
S11302E00E94EA04DC01CB0120E030E048E452E45F
S11302F0BC01CD010E94E503DC01CB019C01AD01F1
S1130300C501B4010E94E50418161CF40E94DB0226
S113031083C00E94EC0280C08091CA059091CB05F5
S11303209C012F5F3F4F8091C0059091C105880FBC
S1130330991F821793071CF40E94EC0202C00E94CA
S1130340DB028091CA059091CB059C012F5F3F4F42
S11303508091C2059091C305880F991F8217930756
S11303601CF40E940E0302C00E94FD028091CA0583
S11303709091CB059C012F5F3F4F8091C4059091D4
S1130380C505880F991F821793071CF40E94300338
S113039002C00E941F038091C6059091C7059C016D
S11303A02F5F3F4F8091C4059091C505880F991F19
S11303B0821793071CF40E94520302C00E94410357
S11303C08091C8059091C9059C012F5F3F4F809192
S11303D0C4059091C505880F991F821793071CF4D3
S11303E00E94740319C00E94630316C08091CA0559
S11303F09091CB059C012F5F3F4F8091C005909158
S1130400C105880F991F821793071CF40E94DB0211
S113041002C00E94EC0200006FCE1F920F92009067
S11304205F000F9211248F939F93EF93FF93CF93C9
S1130430DF93CDB7DEB71092CD051092CC0586E4DC
S113044090E0FC0110828091CA059091CB05019641
S11304509093CB058093CA058091CA059091CB05F2
S1130460883C910521F41092CB051092CA05809125
S1130470C6059091C705883C910521F41092C705E3
S11304801092C6058091C8059091C905883C9105D4
S113049021F41092C9051092C8050000DF91CF9194
S11304A0FF91EF919F918F910F9000925F000F90B9
S11304B01F9018951F920F9200905F000F921124C5
S11304C02F933F934F935F936F937F938F939F9358
S11304D0AF93BF93EF93FF93CF93DF93CDB7DEB783
S11304E00E94C902882F90E0C097880F991F9C0131
S11304F0220F331F220F331F820F931F9093C105C6
S11305008093C0050E94C902882F90E0C097880F8D
S1130510991F9C01220F331F220F331F820F931F39
S11305209093C3058093C2050000DF91CF91FF91A2
S1130530EF91BF91AF919F918F917F916F915F9157
S11305404F913F912F910F9000925F000F901F9059
S113055018951F920F9200905F000F9211248F93B1
S11305609F93CF93DF93CDB7DEB78091CC05909165
S1130570CD0501969093CD058093CC050000DF91C5
S1130580CF919F918F910F9000925F000F901F90D9
S11305901895CF93DF93CDB7DEB7000080EC90E0E1
S11305A0FC0180818823D4F786EC90E0FC018081F3
S11305B0DF91CF910895CF93DF93CDB7DEB785E276
S11305C090E025E230E0F90120812160FC012083E4
S11305D00000DF91CF910895CF93DF93CDB7DEB7BD
S11305E085E290E025E230E0F90120812E7FFC01D4
S11305F020830000DF91CF910895CF93DF93CDB78F
S1130600DEB785E290E025E230E0F9012081226046
S1130610FC0120830000DF91CF910895CF93DF93F5
S1130620CDB7DEB785E290E025E230E0F901208124
S11306302D7FFC0120830000DF91CF910895CF939B
S1130640DF93CDB7DEB785E290E025E230E0F90133
S113065020812460FC0120830000DF91CF91089564
S1130660CF93DF93CDB7DEB785E290E025E230E0AB
S1130670F90120812B7FFC0120830000DF91CF91C1
S11306800895CF93DF93CDB7DEB785E290E025E2FE
S113069030E0F90120812860FC0120830000DF9113
S11306A0CF910895CF93DF93CDB7DEB785E290E085
S11306B025E230E0F9012081277FFC01208300003E
S11306C0DF91CF910895CF93DF93CDB7DEB785E265
S11306D090E025E230E0F90120812061FC012083D3
S11306E00000DF91CF910895CF93DF93CDB7DEB7AC
S11306F085E290E025E230E0F90120812F7EFC01C3
S113070020830000DF91CF910895CF93DF93CDB77D
S1130710DEB78DE390E02DE330E0F9012081216024
S1130720FC01208389E690E029E630E0F90120818C
S11307302160FC0120830000DF91CF910895CF93C5
S1130740DF93CDB7DEB784E490E022E0FC012083A0
S113075085E490E025E430E0F90120812260FC0189
S1130760208387E490E023E6FC0120838EE690E07A
S11307702EE630E0F90120812260FC012083000094
S1130780DF91CF910895CF93DF93CDB7DEB784EC9B
S113079090E027E630E0FC013183208381EC90E097
S11307A028EDFC01208382EC90E026E0FC0120830C
S11307B082EC90E022EC30E0F9012081277FFC01FB
S11307C020830000DF91CF9108950E94F9030C94D7
S11307D0AB040E94A40458F00E949D0440F029F444
S11307E05F3F29F00C94940451110C94DF040C9491
S11307F09A040E94BC0468F39923B1F3552391F33E
S1130800951B550BBB27AA2762177307840738F07B
S11308109F5F5F4F220F331F441FAA1FA9F335D0D8
S11308200E2E3AF0E0E832D091505040E695001C8C
S1130830CAF72BD0FE2F29D0660F771F881FBB1F46
S1130840261737074807AB07B0E809F0BB0B802D24
S1130850BF01FF2793585F4F3AF09E3F510578F050
S11308600C9494040C94DF045F3FE4F3983ED4F3B7
S1130870869577956795B795F7959F5FC9F7880F24
S1130880911D9695879597F90895E1E0660F771F76
S1130890881FBB1F621773078407BA0720F0621B07
S11308A0730B840BBA0BEE1F88F7E0950895E89458
S11308B009C097FB3EF490958095709561957F4FA4
S11308C08F4F9F4F9923A9F0F92F96E9BB27939552
S11308D0F695879577956795B795F111F8CFFAF462
S11308E0BB0F11F460FF1BC06F5F7F4F8F4F9F4F93
S11308F016C0882311F096E911C0772321F09EE8F1
S1130900872F762F05C0662371F096E8862F70E056
S113091060E02AF09A95660F771F881FDAF7880F30
S11309209695879597F9089597F99F6780E870E001
S113093060E008959FEF80EC089500240A94161651
S1130940170618060906089500240A9412161306B9
S1130950140605060895092E0394000C11F4882347
S113096052F0BB0F40F4BF2B11F460FF04C06F5F63
S11309707F4F8F4F9F4F089557FD9058440F551F39
S113098059F05F3F71F04795880F97FB991F61F00D
S11309909F3F79F087950895121613061406551F84
S11309A0F2CF4695F1DF08C0161617061806991FF0
S11309B0F1CF86957105610508940895E894BB27E5
S11309C066277727CB0197F908950E94570508F405
S11309D08FEF08950E94FD040C94AB040E949D04C3
S11309E038F00E94A40420F0952311F00C94940490
S11309F00C949A0411240C94DF040E94BC0470F338
S1130A00959FC1F3950F50E0551F629FF001729FAF
S1130A10BB27F00DB11D639FAA27F00DB11DAA1FBE
S1130A20649F6627B00DA11D661F829F2227B00D0B
S1130A30A11D621F739FB00DA11D621F839FA00D96
S1130A40611D221F749F3327A00D611D231F849FE6
S1130A50600D211D822F762F6A2F11249F5750403D
S1130A609AF0F1F088234AF0EE0FFF1FBB1F661FB8
S1130A70771F881F91505040A9F79E3F510580F081
S1130A800C9494040C94DF045F3FE4F3983ED4F395
S1130A90869577956795B795F795E7959F5FC1F725
S1130AA0FE2B880F911D9695879597F90895990FB8
S1130AB00008550FAA0BE0E8FEEF16161706E80724
S1130AC0F907C0F012161306E407F50798F0621B45
S1130AD0730B840B950B39F40A2661F0232B242B1A
S1130AE0252B21F408950A2609F4A140A6958FEF39
S1130AF0811D811D0895EE0FFF1F0590F491E02DD7
S1090B000994F894FFCFF4
S1130B060000803FA4707D3F48E17A3FEC51783F76
S1130B168FC2753F3333733FD7A3703F7B146E3F49
S1130B261F856B3FC3F5683F6666663F0AD7633F1A
S1130B36AE47613F52B85E3FF6285C3F9A99593FEB
S1130B463D0A573FE17A543F85EB513F295C4F3FBD
S1130B56CDCC4C3F713D4A3F14AE473FB81E453F8E
S1130B665C8F423F0000403FA4703D3F48E13A3F5E
S1130B76EC51383F8FC2353F3333333FD7A3303F31
S1130B867B142E3F1F852B3FC3F5283F6666263F01
S1130B960AD7233FAE47213F52B81E3FF6281C3FD3
S1130BA69A99193F3D0A173FE17A143F85EB113FA5
S1130BB6295C0F3FCDCC0C3F713D0A3F14AE073F75
S1130BC6B81E053F5C8F023F0000003F48E1FA3E35
S1130BD68FC2F53ED7A3F03E1F85EB3E6666E63E22
S1130BE6AE47E13EF628DC3E3D0AD73E85EBD13ED4
S1130BF6CDCCCC3E14AEC73E5C8FC23EA470BD3E87
S1130C06EC51B83E3333B33E7B14AE3EC3F5A83E37
S1130C160AD7A33E52B89E3E9A99993EE17A943EEB
S1130C26295C8F3E713D8A3EB81E853E0000803E9B
S1130C368FC2753E1F856B3EAE47613E3D0A573EE9
S1130C46CDCC4C3E5C8F423EEC51383E7B142E3E5E
S1130C560AD7233E9A99193E295C0F3EB81E053ED3
S1130C668FC2F53DAE47E13DCDCCCC3DEC51B83D10
S1130C760AD7A33D295C8F3D8FC2753DCDCC4C3D33
S1130C860AD7233D8FC2F53C0AD7A33C0AD7233C97
S1130C96000000000000803F9A99793F8FC2753F9B
S1130CA63333733F295C6F3FCDCC6C3F1F856B3F5D
S1130CB6C3F5683F6666663F0AD7633F5C8F623F4B
S1130CC60000603F52B85E3FF6285C3F48E15A3F59
S1130CD6EC51583F3D0A573F8FC2553F3333533F7C
S1130CE685EB513FD7A3503F7B144E3FCDCC4C3FB1
S1130CF61F854B3F713D4A3F14AE473F6666463FEC
S1130D06B81E453F0AD7433FAE47413F0000403F28
S1130D1652B83E3FA4703D3FF6283C3F9A99393F6E
S1130D26EC51383F3D0A373F8FC2353FE17A343FB5
S1130D3685EB313FD7A3303F295C2F3F7B142E3FF1
S1130D46CDCC2C3F1F852B3FC3F5283F14AE273F40
S1130D566666263FB81E253F0AD7233FAE47213F86
S1130D660000203F52B81E3FA4701D3FF6281C3FCA
S1130D769A99193FEC51183F3D0A173F8FC2153F08
S1130D863333133F85EB113FD7A3103F295C0F3F45
S1130D96CDCC0C3F1F850B3F713D0A3F14AE073F78
S1130DA66666063FB81E053F5C8F023FAE47013FAD
S1130DB60000003F48E1FA3EEC51F83E3333F33E7F
S1130DC6D7A3F03E1F85EB3EC3F5E83E0AD7E33EC4
S1130DD652B8DE3EF628DC3E3D0AD73E85EBD13ED0
S1130DE6295CCF3E713DCA3EB81EC53E0000C03EDA
S1130DF648E1BA3E8FC2B53E7B14AE3EC3F5A83E6B
S1130E06AE47A13EF6289C3EE17A943ECDCC8C3E7C
S1130E165C8F823ED7A3703EF6285C3EA4703D3EAE
S1130E26E17A143E000000000000803F5C8F623FC0
S1130E3648E15A3FE17A543FD7A3503FCDCC4C3FCB
S1130E46C3F5483FB81E453F5C8F423F0000403F14
S1130E56A4703D3F48E13A3F9A99393F3D0A373FEE
S1130E66E17A343F3333333FD7A3303F295C2F3FF6
S1130E76CDCC2C3F1F852B3F713D2A3F14AE273F17
S1130E866666263FB81E253F0AD7233FAE47213F55
S1130E960000203F52B81E3FA4701D3FF6281C3F99
S1130EA648E11A3F9A99193FEC51183F8FC2153FF2
S1130EB6E17A143F3333133F85EB113FD7A3103F39
S1130EC6295C0F3F7B140E3FCDCC0C3F1F850B3F97
S1130ED6713D0A3FC3F5083F14AE073F6666063FF9
S1130EE6B81E053F0AD7033F5C8F023FAE47013F5A
S1130EF60000003FA470FD3E48E1FA3EEC51F83E86
S1130F068FC2F53E3333F33ED7A3F03E7B14EE3E59
S1130F161F85EB3EC3F5E83E6666E63E0AD7E33E2A
S1130F26AE47E13E52B8DE3EF628DC3E9A99D93EFB
S1130F363D0AD73EE17AD43E295CCF3ECDCCCC3EA9
S1130F46713DCA3E14AEC73EB81EC53E5C8FC23E56
S1130F560000C03EA470BD3EEC51B83E8FC2B53E03
S1130F663333B33ED7A3B03E1F85AB3EC3F5A83E8D
S1130F766666A63EAE47A13E52B89E3E9A99993EF3
S1130F863D0A973E85EB913ECDCC8C3E713D8A3E23
S1130F96B81E853E0000803E8FC2753E1F856B3E9F
S1130FA6F6285C3ECDCC4C3EA4703D3E7B142E3ED2
S1130FB6E17A143E1F85EB3D000000001027060071
S10D0FC61400140014004300850019
S9030000FC
