S0170000416C706861436F6E74726F6C6C65722E7372656303
S11300000C9445000C9434010C9462000C9462002E
S11300100C9462000C9462000C9462000C946200D4
S11300200C9462000C9462000C9462000C946200C4
S11300300C9462000C9462000C9462000C946200B4
S11300400C9468010C9462000C9462000C9462009D
S11300500C947F010C9462000C9462000C94620076
S11300600C9462000C9462000C9462000C94620084
S11300700C9462000C9462000C946200DE00D600C2
S11300801701FE00A000E000D80011241FBECFEF2E
S1130090D0E1DEBFCDBF15E0A0E0B1E0E0E1F8E0E3
S11300A002C005900D92A63CB107D9F725E0A6EC55
S11300B0B5E001C01D92A83DB207E1F70E946400BB
S11300C00C9406040C9400007894E89A80916900DA
S11300D081608093690081E090E09093CD058093E6
S11300E0CC051092CF051092CE0582E084BD85B573
S11300F0826085BD83E687BD80916E0082608093B7
S11301006E0087E690E09093C5008093C40088ED6C
S11301108093C10086E08093C2008091C200877FF3
S11301208093C2008FEF84B9E0910001F091010146
S11301303197E730F105E8F7E25CFF4F0C94AE032A
S11301406091CA057091CB056F5F7F4F072E000C3D
S1130150880B990B0E948C026B017C01C091D6051F
S1130160D091D705CC0FDD1FCC0FDD1FC856DD4F56
S11301706091020170910301072E000C880B990B0A
S11301800E948C02288139814A815B810E941D036F
S113019020E030E048E452E40E9418029B01AC01E4
S11301A0C701B6010E941803181644F4289ABCCF5C
S11301B08091C8059091C905892BC1F72898B4CFBF
S11301C08091D6059091D705880F991F2091CC0571
S11301D03091CD05281739070CF444C02898809134
S11301E0D4059091D505880F991F2091CC053091A5
S11301F0CD0528173907A4F1299896CF6091CA052F
S11302007091CB056F5F7F4F072E000C880B990B05
S11302100E948C026B017C01C091D605D091D70558
S1130220CC0FDD1FCC0FDD1FCC5FDE4FA1CF609163
S1130230CA057091CB056F5F7F4F072E000C880BAA
S1130240990B0E948C026B017C01C091D605D09160
S1130250D705CC0FDD1FCC0FDD1FC45DDB4F88CF6E
S1130260299A62CF289ABBCF1F920F920FB60F9292
S113027011248F939F93EF93FF931092CB051092C9
S1130280CA0516BC8091CC059091CD050196873C9A
S1130290910569F09093CD058093CC05FF91EF9182
S11302A09F918F910F900FBE0F901F9018951092F1
S11302B0CD051092CC05E1ECF5E092E58091C0000B
S11302C085FFFCCF9093C60091919111F7CFE6CFB3
S11302D01F920F920FB60F9211248F939F938091C8
S11302E0CA059091CB0501969093CB058093CA05DE
S11302F09F918F910F900FBE0F901F9018951F9292
S11303000F920FB60F9211242F933F934F935F9345
S11303106F937F938F939F93AF93BF93EF93FF93C9
S1130320CF93DF93CDB7DEB7E297DEBFCDBF809129
S1130330C00087FFFCCF9091C600AE014F5F5F4FB6
S1130340FA01933291F09E012E5C3F4F3196DF010A
S113035011979C939091C00097FFFCCF9091C60099
S1130360933219F0E217F30789F7108229812223C7
S113037059F0FE0132969091C00095FFFCCF209376
S1130380C60021912111F7CF64EC75E0CA010E94E7
S1130390D2030E94B403909301018093000164ECA2
S11303A075E080E090E00E94D2030E94B403909331
S11303B0D1058093D00564EC75E080E090E00E9464
S11303C0D2030E94B4039093D7058093D60564ECBE
S11303D075E080E090E00E94D2030E94B403909301
S11303E0D5058093D40564EC75E080E090E00E942C
S11303F0D2030E94B4039093D3058093D205E2966E
S11304000FB6F894DEBF0FBECDBFDF91CF91FF9141
S1130410EF91BF91AF919F918F917F916F915F9178
S11304204F913F912F910F900FBE0F901F901895F1
S11304300E942C020C94DE020E94D70258F00E9403
S1130440D00240F029F45F3F29F00C94C702511107
S11304500C9412030C94CD020E94EF0268F39923CA
S1130460B1F3552391F3951B550BBB27AA276217AC
S11304707307840738F09F5F5F4F220F331F441FB9
S1130480AA1FA9F335D00E2E3AF0E0E832D09150ED
S11304905040E695001CCAF72BD0FE2F29D0660FDA
S11304A0771F881FBB1F261737074807AB07B0E81D
S11304B009F0BB0B802DBF01FF2793585F4F3AF023
S11304C09E3F510578F00C94C7020C9412035F3FD1
S11304D0E4F3983ED4F3869577956795B795F795A9
S11304E09F5FC9F7880F911D9695879597F9089591
S11304F0E1E0660F771F881FBB1F6217730784072D
S1130500BA0720F0621B730B840BBA0BEE1F88F73B
S1130510E0950895E89409C097FB3EF49095809582
S1130520709561957F4F8F4F9F4F9923A9F0F92FB5
S113053096E9BB279395F695879577956795B79533
S1130540F111F8CFFAF4BB0F11F460FF1BC06F5F19
S11305507F4F8F4F9F4F16C0882311F096E911C02B
S1130560772321F09EE8872F762F05C0662371F04C
S113057096E8862F70E060E02AF09A95660F771F60
S1130580881FDAF7880F9695879597F9089597F954
S11305909F6780E870E060E008959FEF80EC089525
S11305A000240A941616170618060906089500244E
S11305B00A9412161306140605060895092E0394C8
S11305C0000C11F4882352F0BB0F40F4BF2B11F43C
S11305D060FF04C06F5F7F4F8F4F9F4F089557FD9B
S11305E09058440F551F59F05F3F71F04795880F9D
S11305F097FB991F61F09F3F79F087950895121634
S113060013061406551FF2CF4695F1DF08C01616DF
S113061017061806991FF1CF869571056105089490
S11306200895E894BB2766277727CB0197F90895A7
S11306300E948A0308F48FEF08950E9430030C94FB
S1130640DE020E94D00238F00E94D70220F09523E7
S113065011F00C94C7020C94CD0211240C941203D3
S11306600E94EF0270F3959FC1F3950F50E0551F60
S1130670629FF001729FBB27F00DB11D639FAA27F3
S1130680F00DB11DAA1F649F6627B00DA11D661F42
S1130690829F2227B00DA11D621F739FB00DA11D63
S11306A0621F839FA00D611D221F749F3327A00D1D
S11306B0611D231F849F600D211D822F762F6A2FB9
S11306C011249F5750409AF0F1F088234AF0EE0F1E
S11306D0FF1FBB1F661F771F881F91505040A9F74B
S11306E09E3F510580F00C94C7020C9412035F3FA7
S11306F0E4F3983ED4F3869577956795B795F79587
S1130700E7959F5FC1F7FE2B880F911D96958795FE
S113071097F90895990F0008550FAA0BE0E8FEEF2A
S113072016161706E807F907C0F012161306E407B1
S1130730F50798F0621B730B840B950B39F40A26AA
S113074061F0232B242B252B21F408950A2609F488
S1130750A140A6958FEF811D811D0895EE0FFF1F07
S11307600590F491E02D0994FC0188279927E894D9
S113077021912032E9F3293010F02E30C8F32B32C6
S113078041F02D3239F4689404C00E94FE03820FB4
S1130790911D219120532A30C0F31EF49095819528
S11307A09F4F089546EC55E00E94D7030895FA013F
S11307B0A191B081009719F41097E1F0CD01DC010B
S11307C0CD010D90002011F4C00113C0FB01219153
S11307D0222319F02015D9F7F3CFFB01219120151D
S11307E019F41E92119606C02223C1F70D90002021
S11307F0A1F7D001FA01A193B08308957AE0979FFD
S1130800902D879F802D910D11240895F894FFCF8A
S1130810060010270000803F5C8F623F48E15A3F8A
S1130820E17A543FD7A3503FCDCC4C3FC3F5483F6A
S1130830B81E453F5C8F423F0000403FA4703D3FDF
S113084048E13A3F9A99393F3D0A373FE17A343FCC
S11308503333333FD7A3303F295C2F3FCDCC2C3FDC
S11308601F852B3F713D2A3F14AE273F6666263F06
S1130870B81E253F0AD7233FAE47213F0000203F43
S113088052B81E3FA4701D3FF6281C3F48E11A3F92
S11308909A99193FEC51183F8FC2153FE17A143FE2
S11308A03333133F85EB113FD7A3103F295C0F3F30
S11308B07B140E3FCDCC0C3F1F850B3F713D0A3F8F
S11308C0C3F5083F14AE073F6666063FB81E053FF2
S11308D00AD7033F5C8F023FAE47013F0000003F51
S11308E0A470FD3E48E1FA3EEC51F83E8FC2F53E5D
S11308F03333F33ED7A3F03E7B14EE3E1F85EB3E2D
S1130900C3F5E83E6666E63E0AD7E33EAE47E13EFF
S113091052B8DE3EF628DC3E9A99D93E3D0AD73ECF
S1130920E17AD43E295CCF3ECDCCCC3E713DCA3E6B
S113093014AEC73EB81EC53E5C8FC23E0000C03E2A
S1130940A470BD3EEC51B83E8FC2B53E3333B33EC6
S1130950D7A3B03E1F85AB3EC3F5A83E6666A63E50
S1130960AE47A13E52B89E3E9A99993E3D0A973EA3
S113097085EB913ECDCC8C3E713D8A3EB81E853EC2
S11309800000803E8FC2753E1F856B3EF6285C3E9C
S1130990CDCC4C3EA4703D3E7B142E3EE17A143EF9
S11309A01F85EB3D000000000000803F9A99793FCD
S11309B08FC2753F3333733F295C6F3FCDCC6C3F9F
S11309C01F856B3FC3F5683F6666663F0AD7633F82
S11309D05C8F623F0000603F52B85E3FF6285C3F88
S11309E048E15A3FEC51583F3D0A573F8FC2553FAB
S11309F03333533F85EB513FD7A3503F7B144E3FD6
S1130A00CDCC4C3F1F854B3F713D4A3F14AE473F11
S1130A106666463FB81E453F0AD7433FAE47413F4F
S1130A200000403F52B83E3FA4703D3FF6283C3F93
S1130A309A99393FEC51383F3D0A373F8FC2353FD1
S1130A40E17A343F85EB313FD7A3303F295C2F3F18
S1130A507B142E3FCDCC2C3F1F852B3FC3F5283F65
S1130A6014AE273F6666263FB81E253F0AD7233FAC
S1130A70AE47213F0000203F52B81E3FA4701D3FE7
S1130A80F6281C3F9A99193FEC51183F3D0A173F2D
S1130A908FC2153F3333133F85EB113FD7A3103F6C
S1130AA0295C0F3FCDCC0C3F1F850B3F713D0A3FA6
S1130AB014AE073F6666063FB81E053F5C8F023FD3
S1130AC0AE47013F0000003F48E1FA3EEC51F83EDA
S1130AD03333F33ED7A3F03E1F85EB3EC3F5E83E28
S1130AE00AD7E33E52B8DE3EF628DC3E3D0AD73E46
S1130AF085EBD13E295CCF3E713DCA3EB81EC53E52
S1130B000000C03E48E1BA3E8FC2B53E7B14AE3E03
S1130B10C3F5A83EAE47A13EF6289C3EE17A943E3A
S1130B20CDCC8C3E5C8F823ED7A3703EF6285C3ED3
S1130B30A4703D3EE17A143E000000000000803FB6
S1130B40A4707D3F48E17A3FEC51783F8FC2753FF6
S1130B503333733FD7A3703F7B146E3F1F856B3FC6
S1130B60C3F5683F6666663F0AD7633FAE47613F99
S1130B7052B85E3FF6285C3F9A99593F3D0A573F69
S1130B80E17A543F85EB513F295C4F3FCDCC4C3F3C
S1130B90713D4A3F14AE473FB81E453F5C8F423F0C
S1130BA00000403FA4703D3F48E13A3FEC51383FDC
S1130BB08FC2353F3333333FD7A3303F7B142E3FAF
S1130BC01F852B3FC3F5283F6666263F0AD7233F80
S1130BD0AE47213F52B81E3FF6281C3F9A99193F51
S1130BE03D0A173FE17A143F85EB113F295C0F3F23
S1130BF0CDCC0C3F713D0A3F14AE073FB81E053FF4
S1130C005C8F023F0000003F48E1FA3E8FC2F53E90
S1130C10D7A3F03E1F85EB3E6666E63EAE47E13E57
S1130C20F628DC3E3D0AD73E85EBD13ECDCCCC3E0A
S1130C3014AEC73E5C8FC23EA470BD3EEC51B83EBC
S1130C403333B33E7B14AE3EC3F5A83E0AD7A33E6E
S1130C5052B89E3E9A99993EE17A943E295C8F3E21
S1130C60713D8A3EB81E853E0000803E8FC2753EAF
S1130C701F856B3EAE47613E3D0A573ECDCC4C3E90
S1130C805C8F423EEC51383E7B142E3E0AD7233E05
S1130C909A99193E295C0F3EB81E053E8FC2F53D58
S1130CA0AE47E13DCDCCCC3DEC51B83D0AD7A33D98
S1130CB0295C8F3D8FC2753DCDCC4C3D0AD7233D79
S1130CC08FC2F53C0AD7A33C0AD7233C000000009E
S1090CD0524551002D0005
S9030000FC
