S0170000416C706861436F6E74726F6C6C65722E7372656303
S11300000C9445000C94A2060C9462000C946200BB
S11300100C9462000C9462000C9462000C946200D4
S11300200C9462000C9462000C9462000C946200C4
S11300300C9462000C9462000C9462000C946200B4
S11300400C942C070C9462000C9462000C946200D3
S11300500C9410070C9462000C9462000C946200DF
S11300600C9462000C9462000C9462000C94620084
S11300700C9462000C9462000C946200CC04C604DC
S1130080B303A0026301BB00D20411241FBECFEF4F
S1130090D0E1DEBFCDBF18E0A0E0B1E0E6E6F2E1DA
S11300A002C005900D92A033B107D9F728E0A0E370
S11300B0B8E001C01D92A737B207E1F70E946400BF
S11300C00C9431090C940000E89A809169008160D5
S11300D08093690082E084BD85B5826085BD83E636
S11300E087BD80916E00826080936E0089E190E00C
S11300F09093C5008093C40088E98093C10086E092
S11301008093C2008091C200877F8093C20078945C
S11301108FEF84B942E7342E54E6C52ED12CC1E0CA
S1130120D0E062E6E62E67E0F62E08E916E080915C
S11301303C0890913D08883C910509F493C0809156
S1130140340890913508019709F4A1C0A0903408AF
S1130150B090350881E0A816B10409F481C4E09197
S11301601001F09111013197E730F10500F7E25CDD
S1130170FF4F0C94D90880913C0890913D0883343A
S1130180910509F441C580913C0890913D0885385A
S1130190910509F430C5809142089091430820915B
S11301A03C0830913D08880F991F281739070CF433
S11301B01EC52898809140089091410820913C08E0
S11301C030913D08880F991F281739070CF40DC585
S11301D0299880913E0890913F0820913C083091E5
S11301E03D08880F991F281739070CF4FCC42A9876
S11301F080913E0890913F08409108015091090177
S113020060910A0170910B01880F991F092E000C4F
S1130210AA0BBB0B481759076A077B070CF4E1C408
S11302202B9880913E0890913F0840910401509191
S113023005016091060170910701880F991F092E2D
S1130240000CAA0BBB0B481759076A077B070CF471
S113025075C12C9880913C0890913D08883C91058B
S113026009F06DCF10923D0810923C0810923B08A3
S113027010923A088091C00085FFFCCF3092C600EE
S11302808091340890913508019709F05FCF8091EF
S11302907608833209F45ACFE0913608F091370892
S11302A080917608EC5BF74F8083809136089091BB
S11302B037080196909337088093360810923508D2
S11302C0109234084CCF80913808909139088638C0
S11302D091050CF069C480913808909139088D5BC0
S11302E09F4F90930301809302018091380890916D
S11302F03908843491050CF469C4809138089091CC
S1130300390883549109909301018093000160910D
S1130310380870913908E0914208F0914308EE0FD3
S1130320FF1FEE0FFF1FE855FD4F80809180A280D4
S1130330B380072E000C880B990B0E94B7072B0182
S11303403C016091120170911301072E000C880B7F
S1130350990B0E94B707A50194010E94480820E068
S113036030E048E452E40E9443079B01AC01C3011E
S1130370B2010E94430818160CF014C4289A609124
S1130380380870913908E0914008F0914108EE0F67
S1130390FF1FEE0FFF1FE855FD4F80809180A28064
S11303A0B380072E000C880B990B0E94B7072B0112
S11303B03C016091120170911301072E000C880B0F
S11303C0990B0E94B707A50194010E94480820E0F8
S11303D030E048E452E40E9443079B01AC01C301AE
S11303E0B2010E94430818160CF0DAC3299A6091EE
S11303F0380870913908E0913E08F0913F08EE0FFB
S1130400FF1FEE0FFF1FE855FD4F80809180A280F3
S1130410B380072E000C880B990B0E94B7072B01A1
S11304203C016091120170911301072E000C880B9E
S1130430990B0E94B707A50194010E94480820E087
S113044030E048E452E40E9443079B01AC01C3013D
S1130450B2010E94430818160CF0A0C32A9A6091B6
S1130460020170910301E0913E08F0913F08EE0F04
S1130470FF1FEE0FFF1FE855FD4F80809180A28083
S1130480B380072E000C880B990B0E94B7072B0131
S11304903C016091120170911301072E000C880B2E
S11304A0990B0E94B707A50194010E94480820E017
S11304B030E048E452E40E9443079B01AC01C301CD
S11304C0B2010E94430818160CF066C32B9A60917F
S11304D0000170910101E0913E08F0913F08EE0F98
S11304E0FF1FEE0FFF1FE855FD4F80809180A28013
S11304F0B380072E000C880B990B0E94B7072B01C1
S11305003C016091120170911301072E000C880BBD
S1130510990B0E94B707A50194010E94480820E0A6
S113052030E048E452E40E9443079B01AC01C3015C
S1130530B2010E94430818160CF08BCE2C9AF7CD0A
S11305408091380890913908863891050CF0DAC208
S113055080913808909139088D5B9F4F90930301E7
S11305608093020180913808909139088434910570
S11305700CF4DAC2809138089091390883549109B7
S113058090930101809300016091380870913908BB
S1130590E0914208F0914308EE0FFF1FEE0FFF1F9A
S11305A0EC5EFE4F80809180A280B380072E000C09
S11305B0880B990B0E94B7072B013C016091120133
S11305C070911301072E000C880B990B0E94B7073A
S11305D0A50194010E94480820E030E048E452E478
S11305E00E9443079B01AC01C301B2010E9443086E
S11305F018160CF0CFC2289A609138087091390807
S1130600E0914008F0914108EE0FFF1FEE0FFF1F2D
S1130610EC5EFE4F80809180A280B380072E000C98
S1130620880B990B0E94B7072B013C0160911201C2
S113063070911301072E000C880B990B0E94B707C9
S1130640A50194010E94480820E030E048E452E407
S11306500E9443079B01AC01C301B2010E944308FD
S113066018160CF095C2299A6091380870913908CF
S1130670E0913E08F0913F08EE0FFF1FEE0FFF1FC1
S1130680EC5EFE4F80809180A280B380072E000C28
S1130690880B990B0E94B7072B013C016091120152
S11306A070911301072E000C880B990B0E94B70759
S11306B0A50194010E94480820E030E048E452E497
S11306C00E9443079B01AC01C301B2010E9443088D
S11306D018160CF05BC22A9A609102017091030112
S11306E0E0913E08F0913F08EE0FFF1FEE0FFF1F51
S11306F0EC5EFE4F80809180A280B380072E000CB8
S1130700880B990B0E94B7072B013C0160911201E1
S113071070911301072E000C880B990B0E94B707E8
S1130720A50194010E94480820E030E048E452E426
S11307300E9443079B01AC01C301B2010E9443081C
S113074018160CF021C22B9A6091000170910101DE
S1130750E0913E08F0913F08EE0FFF1FEE0FFF1FE0
S1130760EC5EFE4FC2CE80913808909139088638ED
S113077091050CF0ECC180913808909139088D5B9B
S11307809F4F9093030180930201809138089091C8
S11307903908843491050CF4ECC1809138089091A7
S11307A03908835491099093010180930001609169
S11307B0380870913908E0914208F0914308EE0F2F
S11307C0FF1FEE0FFF1FE45CFB4F80809180A2802F
S11307D0B380072E000C880B990B0E94B7072B01DE
S11307E03C016091120170911301072E000C880BDB
S11307F0990B0E94B707A50194010E94480820E0C4
S113080030E048E452E40E9443079B01AC01C30179
S1130810B2010E94430818160CF097C1289A6091FF
S1130820380870913908E0914008F0914108EE0FC2
S1130830FF1FEE0FFF1FE45CFB4F80809180A280BE
S1130840B380072E000C880B990B0E94B7072B016D
S11308503C016091120170911301072E000C880B6A
S1130860990B0E94B707A50194010E94480820E053
S113087030E048E452E40E9443079B01AC01C30109
S1130880B2010E94430818160CF05DC1299A6091C8
S1130890380870913908E0913E08F0913F08EE0F56
S11308A0FF1FEE0FFF1FE45CFB4F80809180A2804E
S11308B0B380072E000C880B990B0E94B7072B01FD
S11308C03C016091120170911301072E000C880BFA
S11308D0990B0E94B707A50194010E94480820E0E3
S11308E030E048E452E40E9443079B01AC01C30199
S11308F0B2010E94430818160CF023C12A9A609191
S1130900020170910301E0913E08F0913F08EE0F5F
S1130910FF1FEE0FFF1FE45CFB4F80809180A280DD
S1130920B380072E000C880B990B0E94B7072B018C
S11309303C016091120170911301072E000C880B89
S1130940990B0E94B707A50194010E94480820E072
S113095030E048E452E40E9443079B01AC01C30128
S1130960B2010E94430818160CF0E9C02B9A60915A
S1130970000170910101E0913E08F0913F08EE0FF3
S1130980FF1FEE0FFF1FE45CFB4FAFCD289A299A9F
S11309902A9A2B9A2C9ACBCB289829982A982B9868
S11309A02C98C5CB80910E0190910F01843691054E
S11309B009F4C3C180910C0190910D018436910515
S11309C009F4B6C18091320890913308019709F473
S11309D02AC1E0913A08F0913B08EE0FFF1FEC5951
S11309E0F84F80819181019709F41BC12898E09107
S11309F03A08F0913B08EE0FFF1FE656F94F80814D
S1130A009181019709F40BC12998E0913A08F0917A
S1130A103B08EE0FFF1FE053FA4F8081918101974D
S1130A2009F4FBC02A98E0910E01F0910F01EE0F3A
S1130A30FF1FE053FA4F80819181019709F4D9C0D7
S1130A402B98E0910C01F0910D01EE0FFF1FE05384
S1130A50FA4F80819181019709F470CD2C98FACBDB
S1130A6080917608833209F07ACB80913608909190
S1130A70370801969093370880933608E09136083A
S1130A80F0913708EC5BF74F10826EE278E084E473
S1130A9098E00E94FD080E94DF0890931101809362
S1130AA010016EE278E080E090E00E94FD080E9470
S1130AB0DF0890934308809342086EE278E080E078
S1130AC090E00E94FD080E94DF0890934108809303
S1130AD040086EE278E080E090E00E94FD080E9409
S1130AE0DF0890933F0880933E08109237081092D5
S1130AF036081092350810923408B0923308A09248
S1130B0032082DCB80913808909139088558910985
S1130B1090930301809302018091380890913908E1
S1130B20843491050CF026CD8091380890913908D1
S1130B308B579F4F909301018093000125CD2B98F3
S1130B4016CF2A98DCCE2998A2CE289868CE809118
S1130B50380890913908855891099093030180933E
S1130B6002018091380890913908843491050CF081
S1130B7014CE80913808909139088B579F4F9093E9
S1130B8001018093000113CE2B98DECD2A98A4CDC9
S1130B9029986ACD289830CD2B9899CC2A985FCC87
S1130BA0299825CC2898EBCB809138089091390866
S1130BB0855891099093030180930201809138082C
S1130BC090913908843491050CF097CB80913808C2
S1130BD0909139088B579F4F9093010180930001A6
S1130BE096CB2B9A1ECB2A9A03CB299AF2CA289A1F
S1130BF0E1CA2B9A26CF109204011092050110929B
S1130C00060110920701C7CA109208011092090147
S1130C1010920A0110920B01B6CA2A9A04CF299A9B
S1130C20F4CE289AE4CEA0914208B0914308B601CC
S1130C306A1B7B0BCD0184569109E4E6F7E020E0C2
S1130C4030E00EC0D183C08397FD10C0AC01461BB9
S1130C50570B32969C0188E0EC32F80781F0CA0108
S1130C6037FFF0CF1182108297FFF0CFAD01480F0C
S1130C70591F32969C0188E0EC32F80781F7A09165
S1130C804008B0914108B6016A1B7B0BCD01845624
S1130C909109EAE9F6E020E030E00DC0D183C08399
S1130CA097FD0FC0AC01461B570B32969C01EE1604
S1130CB0FF0679F0CA0137FFF1CF1182108297FF46
S1130CC0F1CFAD01480F591F32969C01EE16FF0675
S1130CD089F7A0913E08B0913F08B6016A1B7B0BCF
S1130CE0CD0184569109E0EDF5E020E030E00DC03F
S1130CF0D183C08397FD0FC0AC01461B570B3296BE
S1130D009C010E171F0779F0CA0137FFF1CF11823A
S1130D10108297FFF1CFAD01480F591F32969C0105
S1130D200E171F0789F7109233081092320851CE1C
S1130D3010920D0110920C0145CE10920F011092E9
S1130D400E0138CE1F920F920FB60F9211248F937B
S1130D509F93AF93BF93F894109239081092380878
S1130D6080913C0890913D08019690933D088093B2
S1130D703C0880913C0890913D0880FD21C0809101
S1130D803C0890913D08892BD9F080913A089091C4
S1130D903B08019690933B0880933A0880910E019A
S1130DA090910F01019690930F0180930E01809111
S1130DB00C0190910D01019690930D0180930C010B
S1130DC08091080190910901A0910A01B0910B0151
S1130DD00196A11DB11D8093080190930901A09370
S1130DE00A01B0930B018091040190910501A09137
S1130DF00601B09107010196A11DB11D8093040164
S1130E0090930501A0930601B09307017894BF91D4
S1130E10AF919F918F910F900FBE0F901F901895D7
S1130E201F920F920FB60F9211248F939F9380916C
S1130E30C00087FFFCCF8091C6008093760881E0D4
S1130E4090E090933508809334089F918F910F9090
S1130E500FBE0F901F9018951F920F920FB60F920E
S1130E6011248F939F9380913808909139080196AB
S1130E7090933908809338089F918F910F900FBEFB
S1130E800F901F9018950E9457070C9409080E9410
S1130E90020858F00E94FB0740F029F45F3F29F054
S1130EA00C94F20751110C943D080C94F8070E941D
S1130EB01A0868F39923B1F3552391F3951B550B45
S1130EC0BB27AA2762177307840738F09F5F5F4F19
S1130ED0220F331F441FAA1FA9F335D00E2E3AF058
S1130EE0E0E832D091505040E695001CCAF72BD070
S1130EF0FE2F29D0660F771F881FBB1F26173707C1
S1130F004807AB07B0E809F0BB0B802DBF01FF27F2
S1130F1093585F4F3AF09E3F510578F00C94F207D6
S1130F200C943D085F3FE4F3983ED4F3869577959F
S1130F306795B795F7959F5FC9F7880F911D9695AB
S1130F40879597F90895E1E0660F771F881FBB1F07
S1130F50621773078407BA0720F0621B730B840BB4
S1130F60BA0BEE1F88F7E0950895E89409C097FB43
S1130F703EF490958095709561957F4F8F4F9F4F6C
S1130F809923A9F0F92F96E9BB279395F6958795B0
S1130F9077956795B795F111F8CFFAF4BB0F11F473
S1130FA060FF1BC06F5F7F4F8F4F9F4F16C088231A
S1130FB011F096E911C0772321F09EE8872F762F50
S1130FC005C0662371F096E8862F70E060E02AF091
S1130FD09A95660F771F881FDAF7880F969587957D
S1130FE097F9089597F99F6780E870E060E00895A5
S1130FF09FEF80EC089500240A941616170618062D
S11310000906089500240A94121613061406050608
S11310100895092E0394000C11F4882352F0BB0F99
S113102040F4BF2B11F460FF04C06F5F7F4F8F4FFC
S11310309F4F089557FD9058440F551F59F05F3F37
S113104071F04795880F97FB991F61F09F3F79F0E6
S113105087950895121613061406551FF2CF469568
S1131060F1DF08C0161617061806991FF1CF8695EA
S11310707105610508940895E894BB2766277727CE
S1131080CB0197F908950E94B50808F48FEF0895ED
S11310900E945B080C9409080E94FB0738F00E9428
S11310A0020820F0952311F00C94F2070C94F80731
S11310B011240C943D080E941A0870F3959FC1F303
S11310C0950F50E0551F629FF001729FBB27F00DF2
S11310D0B11D639FAA27F00DB11DAA1F649F662747
S11310E0B00DA11D661F829F2227B00DA11D621F96
S11310F0739FB00DA11D621F839FA00D611D221F50
S1131100749F3327A00D611D231F849F600D211D33
S1131110822F762F6A2F11249F5750409AF0F1F0B6
S113112088234AF0EE0FFF1FBB1F661F771F881F1F
S113113091505040A9F79E3F510580F00C94F2075E
S11311400C943D085F3FE4F3983ED4F3869577957D
S11311506795B795F795E7959F5FC1F7FE2B880FC5
S1131160911D9695879597F90895990F0008550F45
S1131170AA0BE0E8FEEF16161706E807F907C0F019
S113118012161306E407F50798F0621B730B840B21
S1131190950B39F40A2661F0232B242B252B21F4FB
S11311A008950A2609F4A140A6958FEF811D811D9B
S11311B00895EE0FFF1F0590F491E02D0994FC01B2
S11311C088279927E89421912032E9F3293010F0F7
S11311D02E30C8F32B3241F02D3239F4689404C018
S11311E00E942909820F911D219120532A30C0F3B6
S11311F01EF4909581959F4F089540E358E00E9416
S113120002090895FA01A191B081009719F4109789
S1131210E1F0CD01DC01CD010D90002011F4C001FD
S113122013C0FB012191222319F02015D9F7F3CF24
S1131230FB012191201519F41E92119606C0222358
S1131240C1F70D900020A1F7D001FA01A193B0835A
S113125008957AE0979F902D879F802D910D1124FA
S10912600895F894FFCF8D
S11312664300850043000000850000002100430080
S1131276070010270000803F5C8F623F48E15A3F19
S1131286E17A543FD7A3503FCDCC4C3FC3F5483FFA
S1131296B81E453F5C8F423F0000403FA4703D3F6F
S11312A648E13A3F9A99393F3D0A373FE17A343F5C
S11312B63333333FD7A3303F295C2F3FCDCC2C3F6C
S11312C61F852B3F713D2A3F14AE273F6666263F96
S11312D6B81E253F0AD7233FAE47213F0000203FD3
S11312E652B81E3FA4701D3FF6281C3F48E11A3F22
S11312F69A99193FEC51183F8FC2153FE17A143F72
S11313063333133F85EB113FD7A3103F295C0F3FBF
S11313167B140E3FCDCC0C3F1F850B3F713D0A3F1E
S1131326C3F5083F14AE073F6666063FB81E053F81
S11313360AD7033F5C8F023FAE47013F0000003FE0
S1131346A470FD3E48E1FA3EEC51F83E8FC2F53EEC
S11313563333F33ED7A3F03E7B14EE3E1F85EB3EBC
S1131366C3F5E83E6666E63E0AD7E33EAE47E13E8F
S113137652B8DE3EF628DC3E9A99D93E3D0AD73E5F
S1131386E17AD43E295CCF3ECDCCCC3E713DCA3EFB
S113139614AEC73EB81EC53E5C8FC23E0000C03EBA
S11313A6A470BD3EEC51B83E8FC2B53E3333B33E56
S11313B6D7A3B03E1F85AB3EC3F5A83E6666A63EE0
S11313C6AE47A13E52B89E3E9A99993E3D0A973E33
S11313D685EB913ECDCC8C3E713D8A3EB81E853E52
S11313E60000803E8FC2753E1F856B3EF6285C3E2C
S11313F6CDCC4C3EA4703D3E7B142E3EE17A143E89
S11314061F85EB3D000000000000803F9A99793F5C
S11314168FC2753F3333733F295C6F3FCDCC6C3F2E
S11314261F856B3FC3F5683F6666663F0AD7633F11
S11314365C8F623F0000603F52B85E3FF6285C3F17
S113144648E15A3FEC51583F3D0A573F8FC2553F3A
S11314563333533F85EB513FD7A3503F7B144E3F65
S1131466CDCC4C3F1F854B3F713D4A3F14AE473FA1
S11314766666463FB81E453F0AD7433FAE47413FDF
S11314860000403F52B83E3FA4703D3FF6283C3F23
S11314969A99393FEC51383F3D0A373F8FC2353F61
S11314A6E17A343F85EB313FD7A3303F295C2F3FA8
S11314B67B142E3FCDCC2C3F1F852B3FC3F5283FF5
S11314C614AE273F6666263FB81E253F0AD7233F3C
S11314D6AE47213F0000203F52B81E3FA4701D3F77
S11314E6F6281C3F9A99193FEC51183F3D0A173FBD
S11314F68FC2153F3333133F85EB113FD7A3103FFC
S1131506295C0F3FCDCC0C3F1F850B3F713D0A3F35
S113151614AE073F6666063FB81E053F5C8F023F62
S1131526AE47013F0000003F48E1FA3EEC51F83E69
S11315363333F33ED7A3F03E1F85EB3EC3F5E83EB7
S11315460AD7E33E52B8DE3EF628DC3E3D0AD73ED5
S113155685EBD13E295CCF3E713DCA3EB81EC53EE1
S11315660000C03E48E1BA3E8FC2B53E7B14AE3E93
S1131576C3F5A83EAE47A13EF6289C3EE17A943ECA
S1131586CDCC8C3E5C8F823ED7A3703EF6285C3E63
S1131596A4703D3EE17A143E000000000000803F46
S11315A6A4707D3F48E17A3FEC51783F8FC2753F86
S11315B63333733FD7A3703F7B146E3F1F856B3F56
S11315C6C3F5683F6666663F0AD7633FAE47613F29
S11315D652B85E3FF6285C3F9A99593F3D0A573FF9
S11315E6E17A543F85EB513F295C4F3FCDCC4C3FCC
S11315F6713D4A3F14AE473FB81E453F5C8F423F9C
S11316060000403FA4703D3F48E13A3FEC51383F6B
S11316168FC2353F3333333FD7A3303F7B142E3F3E
S11316261F852B3FC3F5283F6666263F0AD7233F0F
S1131636AE47213F52B81E3FF6281C3F9A99193FE0
S11316463D0A173FE17A143F85EB113F295C0F3FB2
S1131656CDCC0C3F713D0A3F14AE073FB81E053F83
S11316665C8F023F0000003F48E1FA3E8FC2F53E20
S1131676D7A3F03E1F85EB3E6666E63EAE47E13EE7
S1131686F628DC3E3D0AD73E85EBD13ECDCCCC3E9A
S113169614AEC73E5C8FC23EA470BD3EEC51B83E4C
S11316A63333B33E7B14AE3EC3F5A83E0AD7A33EFE
S11316B652B89E3E9A99993EE17A943E295C8F3EB1
S11316C6713D8A3EB81E853E0000803E8FC2753E3F
S11316D61F856B3EAE47613E3D0A573ECDCC4C3E20
S11316E65C8F423EEC51383E7B142E3E0AD7233E95
S11316F69A99193E295C0F3EB81E053E8FC2F53DE8
S1131706AE47E13DCDCCCC3DEC51B83D0AD7A33D27
S1131716295C8F3D8FC2753DCDCC4C3D0AD7233D08
S11317268FC2F53C0AD7A33C0AD7233C000000002D
S1131736010000000000000000000000000000009E
S1131746000000000000000000000000000000008F
S1131756000000000000000000000000000000007F
S1131766000000000000000000000000000000006F
S1131776000000000000000000000000000000005F
S1131786000000000000000000000000000000004F
S1131796000000000000000000000000000000003F
S11317A6000000000000000000000000000000002F
S11317B6000000000000000000000000000000001F
S11317C6000000000000000000000000000000000F
S11317D600000000000000000000000000000000FF
S11317E600000000000000000000000000000000EF
S11317F600000000000000000000010000000000DE
S113180600000000000000000000000000000000CE
S113181600000000000000000000000000000000BE
S113182600000000000000000000000000000000AE
S1131836000000000000000000000000000000009E
S1131846000000000000000000000000000000008E
S1131856000000000000000000000000000000007E
S1131866000000000000000000000000000000006E
S1131876000000000000000000000000000000005E
S1131886000000000000000000000000000000004E
S1131896000000000000000000000000000000003E
S11318A6000000000000000000000000000000002E
S11318B6000000000000000000000000000000001E
S11318C6000000000100000000000000000000000D
S11318D600000000000000000000000000000000FE
S11318E600000000000000000000000000000000EE
S11318F600000000000000000000000000000000DE
S113190600000000000000000000000000000000CD
S113191600000000000000000000000000000000BD
S113192600000000000000000000000000000000AD
S1131936000000000000000000000000000000009D
S1131946000000000000000000000000000000008D
S1131956000000000000000000000000000000007D
S1131966000000000000000000000000000000006D
S1131976000000000000000000000000000000005D
S113198600000000000000000000000000002D0020
S9030000FC
