S0170000416C706861436F6E74726F6C6C65722E7372656303
S11300000C9445000C94B6060C9462000C946200A7
S11300100C9462000C9462000C9462000C946200D4
S11300200C9462000C9462000C9462000C946200C4
S11300300C9462000C9462000C9462000C946200B4
S11300400C9428070C9462000C9462000C946200D7
S11300500C940C070C9462000C9462000C946200E3
S11300600C9462000C9462000C9462000C94620084
S11300700C9462000C9462000C946200EA04E404A0
S1130080BF039A025301BF00F00411241FBECFEF37
S1130090D0E1DEBFCDBF15E0A0E0B1E0EEE5F2E1D6
S11300A002C005900D92AE3CB107D9F728E0AEEC42
S11300B0B5E001C01D92A337B207E1F70E946400C6
S11300C00C942D090C940000E89A809169008160D9
S11300D08093690082E084BD85B5826085BD83E636
S11300E087BD80916E00826080936E0089E190E00C
S11300F09093C5008093C40088E98093C10086E092
S11301008093C2008091C200877F8093C20078945C
S11301108FEF84B952E7352E64E6862E912C7EE368
S1130120C72E78E0D72EC1E0D0E0E4E7EE2EE7E07A
S1130130FE2E0AEA16E08091DA059091DB05883CF0
S1130140910509F47FC08091D2059091D305019760
S113015009F48DC0A090D205B090D30521E0A21679
S1130160B10409F49BC4E0910C01F0910D013197A5
S1130170E730F10500F7E25CFF4F0C94D50880915D
S1130180DA059091DB058334910509F457C5809114
S1130190DA059091DB058538910509F44AC580910B
S11301A0E0059091E1052091DA053091DB05880F97
S11301B0991F281739070CF438C528988091DE0553
S11301C09091DF052091DA053091DB05880F991FA6
S11301D0281739070CF427C529988091DC059091DC
S11301E0DD052091DA053091DB05880F991F28176A
S11301F039070CF416C52A988091DC059091DD0529
S113020020910A0130910B01880F991F2817390793
S11302100CF405C52B988091DC059091DD052091A7
S1130220080130910901880F991F281739070CF428
S11302307FC12C988091DA059091DB05883C91056B
S113024009F081CF1092DB051092DA051092D905DE
S11302501092D8058091C00085FFFCCF3092C60073
S11302608091D2059091D305019709F073CF8091C5
S11302707208833209F46ECFE091D405F091D5056C
S113028080917208E05CF74F80838091D40590914F
S1130290D50501969093D5058093D4051092D30586
S11302A01092D20560CF8091D6059091D7058638FB
S11302B091050CF097C48091D6059091D7058D5B7C
S11302C09F4F90930301809302018091D6059091F2
S11302D0D705843491050CF497C48091D605909188
S11302E0D705835491099093010180930001609193
S11302F0D6057091D705A090E005B090E105072ED2
S1130300000C880B990B0E94B3072B013C01C5011B
S1130310880F991F880F991F9C012C553D4F590137
S113032060910E0170910F01072E000C880B990B40
S11303300E94B307F50120813181428153810E94DB
S1130340440820E030E048E452E40E943F079B0167
S1130350AC01C301B2010E943F0818160CF040C45E
S1130360289A6091D6057091D705A090DE05B090CB
S1130370DF05072E000C880B990B0E94B3072B0195
S11303803C01C501880F991F880F991F9C012C55AA
S11303903D4F590160910E0170910F01072E000C21
S11303A0880B990B0E94B307F501208131814281AA
S11303B053810E94440820E030E048E452E40E9463
S11303C03F079B01AC01C301B2010E943F0818160C
S11303D00CF004C4299A6091D6057091D705A090B9
S11303E0DC05B090DD05072E000C880B990B0E94EC
S11303F0B3072B013C01C501880F991F880F991F72
S11304009C012C553D4F590160910E0170910F01D3
S1130410072E000C880B990B0E94B307F50120816D
S11304203181428153810E94440820E030E048E455
S113043052E40E943F079B01AC01C301B2010E9438
S11304403F0818160CF0C8C32A9A609102017091F3
S11304500301A090DC05B090DD05072E000C880B8D
S1130460990B0E94B3072B013C01C501880F991F0A
S1130470880F991F9C012C553D4F590160910E0125
S113048070910F01072E000C880B990B0E94B30783
S1130490F50120813181428153810E94440820E08A
S11304A030E048E452E40E943F079B01AC01C301E1
S11304B0B2010E943F0818160CF08CC32B9A60916D
S11304C0000170910101A090DC05B090DD05072EBC
S11304D0000C880B990B0E94B3072B013C01C5014A
S11304E0880F991F880F991F9C012C553D4F590166
S11304F060910E0170910F01072E000C880B990B6F
S11305000E94B307F50120813181428153810E9409
S1130510440820E030E048E452E40E943F079B0195
S1130520AC01C301B2010E943F0818160CF081CE41
S11305302C9A01CE8091D6059091D70586389105E5
S11305400CF0FEC28091D6059091D7058D5B9F4F2C
S113055090930301809302018091D6059091D70571
S1130560843491050CF4FEC28091D6059091D70590
S11305708354910990930101809300016091D60501
S11305807091D705A090E005B090E105072E000C0E
S1130590880B990B0E94B3072B013C01C501880FFE
S11305A0991F880F991F9C01205F3E4F590160914C
S11305B00E0170910F01072E000C880B990B0E94FD
S11305C0B307F50120813181428153810E9444089F
S11305D020E030E048E452E40E943F079B01AC0174
S11305E0C301B2010E943F0818160CF0F1C2289A08
S11305F06091D6057091D705A090DE05B090DF0517
S1130600072E000C880B990B0E94B3072B013C01A9
S1130610C501880F991F880F991F9C01205F3E4FC9
S1130620590160910E0170910F01072E000C880B87
S1130630990B0E94B307F5012081318142815381D6
S11306400E94440820E030E048E452E40E943F075E
S11306509B01AC01C301B2010E943F0818160CF0C3
S1130660B5C2299A6091D6057091D705A090DC0592
S1130670B090DD05072E000C880B990B0E94B30780
S11306802B013C01C501880F991F880F991F9C01FC
S1130690205F3E4F590160910E0170910F01072EAA
S11306A0000C880B990B0E94B307F501208131815E
S11306B0428153810E94440820E030E048E452E43F
S11306C00E943F079B01AC01C301B2010E943F0895
S11306D018160CF079C22A9A6091020170910301F4
S11306E0A090DC05B090DD05072E000C880B990B5B
S11306F00E94B3072B013C01C501880F991F880F85
S1130700991F9C01205F3E4F590160910E01709129
S11307100F01072E000C880B990B0E94B307F501FB
S113072020813181428153810E94440820E030E0DD
S113073048E452E40E943F079B01AC01C301B201AB
S11307400E943F0818160CF03DC22B9A60910001DC
S113075070910101A090DC05B090DD05072E000C1E
S1130760880B990B0E94B3072B013C01C501880F2C
S1130770991F880F991F9C01205F3E4FB8CE80912E
S1130780D6059091D705863891050CF0FEC180916D
S1130790D6059091D7058D5B9F4F9093030180936D
S11307A002018091D6059091D705843491050CF40B
S11307B0FEC18091D6059091D705835491099093F9
S11307C00101809300016091D6057091D705A09036
S11307D0E005B090E105072E000C880B990B0E94F0
S11307E0B3072B013C01C501880F991F880F991F7E
S11307F0FC01E85CFB4F5F0160910E0170910F01F9
S1130800072E000C880B990B0E94B307F501208179
S11308103181428153810E94440820E030E048E461
S113082052E40E943F079B01AC01C301B2010E9444
S11308303F0818160CF0A7C1289A6091D60570914C
S1130840D705A090DE05B090DF05072E000C880BBD
S1130850990B0E94B3072B013C01C501880F991F16
S1130860880F991F9C01285C3B4F590160910E0130
S113087070910F01072E000C880B990B0E94B3078F
S1130880F50120813181428153810E94440820E096
S113089030E048E452E40E943F079B01AC01C301ED
S11308A0B2010E943F0818160CF06BC1299A60919E
S11308B0D6057091D705A090DC05B090DD05072E14
S11308C0000C880B990B0E94B3072B013C01C50156
S11308D0880F991F880F991F9C01285C3B4F590171
S11308E060910E0170910F01072E000C880B990B7B
S11308F00E94B307F50120813181428153810E9416
S1130900440820E030E048E452E40E943F079B01A1
S1130910AC01C301B2010E943F0818160CF02FC1AC
S11309202A9A6091020170910301A090DC05B090B5
S1130930DD05072E000C880B990B0E94B3072B01D1
S11309403C01C501880F991F880F991F9C01285CE1
S11309503B4F590160910E0170910F01072E000C5D
S1130960880B990B0E94B307F501208131814281E4
S113097053810E94440820E030E048E452E40E949D
S11309803F079B01AC01C301B2010E943F08181646
S11309900CF0F3C02B9A6091000170910101A090BA
S11309A0DC05B090DD05072E000C880B990B0E9426
S11309B0B3072B013C01C501880F991F880F991FAC
S11309C09C01285C3B4F93CD289A299A2A9A2B9A0A
S11309D02C9AB1CB289829982A982B982C98ABCB91
S11309E080910601909107018436910509F4B9C1FB
S11309F080910401909105018436910509F4ACC1FC
S1130A008091D0059091D105019709F422C1E0911C
S1130A10D805F091D905EE0FFF1FEA58F84F8081F1
S1130A209181019709F413C12898E091D805F091B8
S1130A30D905EE0FFF1FE455F94F8081918101978D
S1130A4009F403C12998E091D805F091D905EE0F76
S1130A50FF1FEE51FA4F80819181019709F4F3C091
S1130A602A98E0910601F0910701EE0FFF1FEE5165
S1130A70FA4F80819181019709F4D9C02B98E091B4
S1130A800401F0910501EE0FFF1FEE51FA4F808132
S1130A909181019709F44CCD2C98CCCB80917208AC
S1130AA0833209F060CB8091D4059091D5050196ED
S1130AB09093D5058093D405E091D405F091D505A4
S1130AC0E05CF74F10826CEC75E080E498E00E94E3
S1130AD0F9080E94DB0890930D0180930C016CECE3
S1130AE075E080E090E00E94F9080E94DB08909392
S1130AF0E1058093E0056CEC75E080E090E00E94F5
S1130B00F9080E94DB089093DF058093DE056CEC06
S1130B1075E080E090E00E94F9080E94DB08909361
S1130B20DD058093DC051092D5051092D405109252
S1130B30D3051092D205B092D105A092D00513CB63
S1130B408091D6059091D70585589109909303011A
S1130B50809302018091D6059091D7058434910544
S1130B600CF002CD8091D6059091D7058B579F4FFD
S1130B70909301018093000101CD2B980CCF2A980A
S1130B80D0CE299894CE289858CE8091D6059091AD
S1130B90D7058558910990930301809302018091B0
S1130BA0D6059091D705843491050CF002CE80913E
S1130BB0D6059091D7058B579F4F90930101809351
S1130BC0000101CE2B98C2CD2A9886CD29984ACD12
S1130BD028980ECD2B9873CC2A9837CC2998FBCB28
S1130BE02898BFCB8091D6059091D7058558910957
S1130BF090930301809302018091D6059091D705CB
S1130C00843491050CF069CB8091D6059091D70579
S1130C108B579F4F909301018093000168CB2B9ACF
S1130C20FACA2A9AE9CA299AD8CA289AC7CA2B9A08
S1130C3026CF1092090110920801B1CA10920B013B
S1130C4010920A01A4CA2A9A0CCF299AFCCE289A97
S1130C50ECCEA091E005B091E105B4016A1B7B0BD9
S1130C60CD0184569109E6E7F7E020E030E00DC0BD
S1130C70D183C08397FD0FC0AC01461B570B32963E
S1130C809C01CE16DF0679F0CA0137FFF1CF11823D
S1130C90108297FFF1CFAD01480F591F32969C0186
S1130CA0CE16DF0689F7A091DE05B091DF05B40109
S1130CB06A1B7B0BCD0184569109ECEAF6E020E037
S1130CC030E00DC0D183C08397FD0FC0AC01461B3B
S1130CD0570B32969C01EE16FF0679F0CA0137FFD6
S1130CE0F1CF1182108297FFF1CFAD01480F591F48
S1130CF032969C01EE16FF0689F7A091DC05B091AF
S1130D00DD05B4016A1B7B0BCD0184569109E2EE2B
S1130D10F5E020E030E00DC0D183C08397FD0FC023
S1130D20AC01461B570B32969C010E171F0779F036
S1130D30CA0137FFF1CF1182108297FFF1CFAD01C5
S1130D40480F591F32969C010E171F0789F71092FE
S1130D50D1051092D0055BCE1092050110920401CA
S1130D604FCE109207011092060142CE1F920F92AD
S1130D700FB60F9211248F939F93F8941092D70576
S1130D801092D6058091DA059091DB050196909337
S1130D90DB058093DA058091DA059091DB0580FD0F
S1130DA021C08091DA059091DB05892BD9F08091DF
S1130DB0D8059091D90501969093D9058093D805CB
S1130DC08091060190910701019690930701809309
S1130DD0060180910401909105010196909305010B
S1130DE08093040180910A0190910B0101969093E4
S1130DF00B0180930A0180910801909109010196E9
S1130E00909309018093080178949F918F910F909A
S1130E100FBE0F901F9018951F920F920FB60F924E
S1130E2011248F939F938091C00087FFFCCF809102
S1130E30C6008093720881E090E09093D30580937C
S1130E40D2059F918F910F900FBE0F901F90189510
S1130E501F920F920FB60F9211248F939F9380913C
S1130E60D6059091D70501969093D7058093D60522
S1130E709F918F910F900FBE0F901F9018950E9415
S1130E8053070C9405080E94FE0758F00E94F707C8
S1130E9040F029F45F3F29F00C94EE0751110C94B3
S1130EA039080C94F4070E94160868F39923B1F3E7
S1130EB0552391F3951B550BBB27AA27621773077C
S1130EC0840738F09F5F5F4F220F331F441FAA1F10
S1130ED0A9F335D00E2E3AF0E0E832D091505040CC
S1130EE0E695001CCAF72BD0FE2F29D0660F771F7A
S1130EF0881FBB1F261737074807AB07B0E809F060
S1130F00BB0B802DBF01FF2793585F4F3AF09E3FE4
S1130F10510578F00C94EE070C9439085F3FE4F324
S1130F20983ED4F3869577956795B795F7959F5F27
S1130F30C9F7880F911D9695879597F90895E1E073
S1130F40660F771F881FBB1F621773078407BA07D2
S1130F5020F0621B730B840BBA0BEE1F88F7E0952D
S1130F600895E89409C097FB3EF490958095709598
S1130F7061957F4F8F4F9F4F9923A9F0F92F96E9E1
S1130F80BB279395F695879577956795B795F11156
S1130F90F8CFFAF4BB0F11F460FF1BC06F5F7F4FF3
S1130FA08F4F9F4F16C0882311F096E911C0772305
S1130FB021F09EE8872F762F05C0662371F096E80E
S1130FC0862F70E060E02AF09A95660F771F881FDD
S1130FD0DAF7880F9695879597F9089597F99F679B
S1130FE080E870E060E008959FEF80EC08950024AD
S1130FF00A941616170618060906089500240A947A
S113100012161306140605060895092E0394000CFF
S113101011F4882352F0BB0F40F4BF2B11F460FF8E
S113102004C06F5F7F4F8F4F9F4F089557FD9058B7
S1131030440F551F59F05F3F71F04795880F97FB98
S1131040991F61F09F3F79F0879508951216130652
S11310501406551FF2CF4695F1DF08C01616170681
S11310601806991FF1CF86957105610508940895B6
S1131070E894BB2766277727CB0197F908950E9448
S1131080B10808F48FEF08950E9457080C940508DE
S11310900E94F70738F00E94FE0720F0952311F014
S11310A00C94EE070C94F40711240C9439080E9454
S11310B0160870F3959FC1F3950F50E0551F629F7A
S11310C0F001729FBB27F00DB11D639FAA27F00D9D
S11310D0B11DAA1F649F6627B00DA11D661F829FC4
S11310E02227B00DA11D621F739FB00DA11D621FA9
S11310F0839FA00D611D221F749F3327A00D611DC6
S1131100231F849F600D211D822F762F6A2F1124A7
S11311109F5750409AF0F1F088234AF0EE0FFF1FDA
S1131120BB1F661F771F881F91505040A9F79E3F31
S1131130510580F00C94EE070C9439085F3FE4F3FA
S1131140983ED4F3869577956795B795F795E79587
S11311509F5FC1F7FE2B880F911D9695879597F990
S11311600895990F0008550FAA0BE0E8FEEF161634
S11311701706E807F907C0F012161306E407F50787
S113118098F0621B730B840B950B39F40A2661F0FB
S1131190232B242B252B21F408950A2609F4A1409E
S11311A0A6958FEF811D811D0895EE0FFF1F0590F9
S11311B0F491E02D0994FC0188279927E894219162
S11311C02032E9F3293010F02E30C8F32B3241F0ED
S11311D02D3239F4689404C00E942509820F911DB0
S11311E0219120532A30C0F31EF4909581959F4F8E
S11311F008954EEC55E00E94FE080895FA01A1916D
S1131200B081009719F41097E1F0CD01DC01CD0114
S11312100D90002011F4C00113C0FB012191222381
S113122019F02015D9F7F3CFFB012191201519F4FA
S11312301E92119606C02223C1F70D900020A1F73B
S1131240D001FA01A193B08308957AE0979F902D7D
S1111250879F802D910D11240895F894FFCFEF
S113125E430085002100430043008500070010274A
S113126E0000803F5C8F623F48E15A3FE17A543F71
S113127ED7A3503FCDCC4C3FC3F5483FB81E453F96
S113128E5C8F423F0000403FA4703D3F48E13A3F2F
S113129E9A99393F3D0A373FE17A343F3333333F2E
S11312AED7A3303F295C2F3FCDCC2C3F1F852B3F3E
S11312BE713D2A3F14AE273F6666263FB81E253F72
S11312CE0AD7233FAE47213F0000203F52B81E3FAE
S11312DEA4701D3FF6281C3F48E11A3F9A99193F06
S11312EEEC51183F8FC2153FE17A143F3333133F4D
S11312FE85EB113FD7A3103F295C0F3F7B140E3FA4
S113130ECDCC0C3F1F850B3F713D0A3FC3F5083F03
S113131E14AE073F6666063FB81E053F0AD7033F65
S113132E5C8F023FAE47013F0000003FA470FD3EBC
S113133E48E1FA3EEC51F83E8FC2F53E3333F33EAC
S113134ED7A3F03E7B14EE3E1F85EB3EC3F5E83E7D
S113135E6666E63E0AD7E33EAE47E13E52B8DE3E4F
S113136EF628DC3E9A99D93E3D0AD73EE17AD43E20
S113137E295CCF3ECDCCCC3E713DCA3E14AEC73EA9
S113138EB81EC53E5C8FC23E0000C03EA470BD3E7A
S113139EEC51B83E8FC2B53E3333B33ED7A3B03E05
S11313AE1F85AB3EC3F5A83E6666A63EAE47A13E7C
S11313BE52B89E3E9A99993E3D0A973E85EB913ED0
S11313CECDCC8C3E713D8A3EB81E853E0000803EDB
S11313DE8FC2753E1F856B3EF6285C3ECDCC4C3ECF
S11313EEA4703D3E7B142E3EE17A143E1F85EB3DE8
S11313FE000000000000803F9A99793F8FC2753F2C
S113140E3333733F295C6F3FCDCC6C3F1F856B3FED
S113141EC3F5683F6666663F0AD7633F5C8F623FDB
S113142E0000603F52B85E3FF6285C3F48E15A3FE9
S113143EEC51583F3D0A573F8FC2553F3333533F0C
S113144E85EB513FD7A3503F7B144E3FCDCC4C3F41
S113145E1F854B3F713D4A3F14AE473F6666463F7C
S113146EB81E453F0AD7433FAE47413F0000403FB9
S113147E52B83E3FA4703D3FF6283C3F9A99393FFF
S113148EEC51383F3D0A373F8FC2353FE17A343F46
S113149E85EB313FD7A3303F295C2F3F7B142E3F82
S11314AECDCC2C3F1F852B3FC3F5283F14AE273FD1
S11314BE6666263FB81E253F0AD7233FAE47213F17
S11314CE0000203F52B81E3FA4701D3FF6281C3F5B
S11314DE9A99193FEC51183F3D0A173F8FC2153F99
S11314EE3333133F85EB113FD7A3103F295C0F3FD6
S11314FECDCC0C3F1F850B3F713D0A3F14AE073F09
S113150E6666063FB81E053F5C8F023FAE47013F3D
S113151E0000003F48E1FA3EEC51F83E3333F33E0F
S113152ED7A3F03E1F85EB3EC3F5E83E0AD7E33E54
S113153E52B8DE3EF628DC3E3D0AD73E85EBD13E60
S113154E295CCF3E713DCA3EB81EC53E0000C03E6A
S113155E48E1BA3E8FC2B53E7B14AE3EC3F5A83EFB
S113156EAE47A13EF6289C3EE17A943ECDCC8C3E0D
S113157E5C8F823ED7A3703EF6285C3EA4703D3E3F
S113158EE17A143E000000000000803FA4707D3F0D
S113159E48E17A3FEC51783F8FC2753F3333733F46
S11315AED7A3703F7B146E3F1F856B3FC3F5683F17
S11315BE6666663F0AD7633FAE47613F52B85E3FE9
S11315CEF6285C3F9A99593F3D0A573FE17A543FBA
S11315DE85EB513F295C4F3FCDCC4C3F713D4A3F8B
S11315EE14AE473FB81E453F5C8F423F0000403F5C
S11315FEA4703D3F48E13A3FEC51383F8FC2353F2E
S113160E3333333FD7A3303F7B142E3F1F852B3FFD
S113161EC3F5283F6666263F0AD7233FAE47213FD0
S113162E52B81E3FF6281C3F9A99193F3D0A173FA0
S113163EE17A143F85EB113F295C0F3FCDCC0C3F73
S113164E713D0A3F14AE073FB81E053F5C8F023F43
S113165E0000003F48E1FA3E8FC2F53ED7A3F03EAC
S113166E1F85EB3E6666E63EAE47E13EF628DC3E5F
S113167E3D0AD73E85EBD13ECDCCCC3E14AEC73E13
S113168E5C8FC23EA470BD3EEC51B83E3333B33EC4
S113169E7B14AE3EC3F5A83E0AD7A33E52B89E3E77
S11316AE9A99993EE17A943E295C8F3E713D8A3E29
S11316BEB81E853E0000803E8FC2753E1F856B3E70
S11316CEAE47613E3D0A573ECDCC4C3E5C8F423E0A
S11316DEEC51383E7B142E3E0AD7233E9A99193E7E
S11316EE295C0F3EB81E053E8FC2F53DAE47E13D67
S11316FECDCCCC3DEC51B83D0AD7A33D295C8F3DF2
S113170E8FC2753DCDCC4C3D0AD7233D8FC2F53CDF
S111171E0AD7A33C0AD7233C000000002D008C
S9030000FC
